{
  "contractName": "ZombieFeeding",
  "abi": [
    {
      "anonymous": false,
      "inputs": [
        {
          "indexed": false,
          "internalType": "uint256",
          "name": "zombieId",
          "type": "uint256"
        },
        {
          "indexed": false,
          "internalType": "string",
          "name": "name",
          "type": "string"
        },
        {
          "indexed": false,
          "internalType": "uint256",
          "name": "dna",
          "type": "uint256"
        }
      ],
      "name": "NewZombie",
      "type": "event"
    },
    {
      "anonymous": false,
      "inputs": [
        {
          "indexed": true,
          "internalType": "address",
          "name": "previousOwner",
          "type": "address"
        },
        {
          "indexed": true,
          "internalType": "address",
          "name": "newOwner",
          "type": "address"
        }
      ],
      "name": "OwnershipTransferred",
      "type": "event"
    },
    {
      "inputs": [
        {
          "internalType": "string",
          "name": "_name",
          "type": "string"
        }
      ],
      "name": "createRandomZombie",
      "outputs": [],
      "stateMutability": "nonpayable",
      "type": "function"
    },
    {
      "inputs": [],
      "name": "owner",
      "outputs": [
        {
          "internalType": "address",
          "name": "",
          "type": "address"
        }
      ],
      "stateMutability": "view",
      "type": "function",
      "constant": true
    },
    {
      "inputs": [],
      "name": "renounceOwnership",
      "outputs": [],
      "stateMutability": "nonpayable",
      "type": "function"
    },
    {
      "inputs": [
        {
          "internalType": "address",
          "name": "newOwner",
          "type": "address"
        }
      ],
      "name": "transferOwnership",
      "outputs": [],
      "stateMutability": "nonpayable",
      "type": "function"
    },
    {
      "inputs": [
        {
          "internalType": "uint256",
          "name": "",
          "type": "uint256"
        }
      ],
      "name": "zombieToOwner",
      "outputs": [
        {
          "internalType": "address",
          "name": "",
          "type": "address"
        }
      ],
      "stateMutability": "view",
      "type": "function",
      "constant": true
    },
    {
      "inputs": [
        {
          "internalType": "uint256",
          "name": "",
          "type": "uint256"
        }
      ],
      "name": "zombies",
      "outputs": [
        {
          "internalType": "string",
          "name": "name",
          "type": "string"
        },
        {
          "internalType": "uint256",
          "name": "dna",
          "type": "uint256"
        },
        {
          "internalType": "uint32",
          "name": "level",
          "type": "uint32"
        },
        {
          "internalType": "uint32",
          "name": "readyTime",
          "type": "uint32"
        },
        {
          "internalType": "uint16",
          "name": "winCount",
          "type": "uint16"
        },
        {
          "internalType": "uint16",
          "name": "lossCount",
          "type": "uint16"
        }
      ],
      "stateMutability": "view",
      "type": "function",
      "constant": true
    },
    {
      "inputs": [
        {
          "internalType": "address",
          "name": "_address",
          "type": "address"
        }
      ],
      "name": "setKittyContractAddress",
      "outputs": [],
      "stateMutability": "nonpayable",
      "type": "function"
    },
    {
      "inputs": [
        {
          "internalType": "uint256",
          "name": "_zombieId",
          "type": "uint256"
        },
        {
          "internalType": "uint256",
          "name": "_kittyId",
          "type": "uint256"
        }
      ],
      "name": "feedOnKitty",
      "outputs": [],
      "stateMutability": "nonpayable",
      "type": "function"
    }
  ],
  "bytecode": "0x60806040526010600155600154600a6200001a919062000150565b6002556201518060035560006004553480156200003657600080fd5b50600062000049620000ed60201b60201c565b9050806000806101000a81548173ffffffffffffffffffffffffffffffffffffffff021916908373ffffffffffffffffffffffffffffffffffffffff1602179055508073ffffffffffffffffffffffffffffffffffffffff16600073ffffffffffffffffffffffffffffffffffffffff167f8be0079c531659141344cd1fd0a4f28419497f9722a3daafe3b4186f6b6457e060405160405180910390a350620002d3565b600033905090565b6000808291508390505b600185111562000147578086048111156200011f576200011e62000297565b5b60018516156200012f5780820291505b80810290506200013f85620002c6565b9450620000ff565b94509492505050565b60006200015d826200028d565b91506200016a836200028d565b9250620001997fffffffffffffffffffffffffffffffffffffffffffffffffffffffffffffffff8484620001a1565b905092915050565b600082620001b3576001905062000286565b81620001c3576000905062000286565b8160018114620001dc5760028114620001e7576200021d565b600191505062000286565b60ff841115620001fc57620001fb62000297565b5b8360020a91508482111562000216576200021562000297565b5b5062000286565b5060208310610133831016604e8410600b8410161715620002575782820a90508381111562000251576200025062000297565b5b62000286565b620002668484846001620000f5565b9250905081840481111562000280576200027f62000297565b5b81810290505b9392505050565b6000819050919050565b7f4e487b7100000000000000000000000000000000000000000000000000000000600052601160045260246000fd5b60008160011c9050919050565b61172d80620002e36000396000f3fe608060405234801561001057600080fd5b50600436106100885760003560e01c8063715018a61161005b578063715018a61461012a5780637bff0a01146101345780638da5cb5b14610150578063f2fde38b1461016e57610088565b806317a7f4cc1461008d5780632052465e146100a9578063528b7b8f146100de5780635f4623f11461010e575b600080fd5b6100a760048036038101906100a29190611093565b61018a565b005b6100c360048036038101906100be919061106a565b6102b7565b6040516100d59695949392919061124d565b60405180910390f35b6100f860048036038101906100f3919061106a565b6103c7565b6040516101059190611232565b60405180910390f35b61012860048036038101906101239190610f25565b6103fa565b005b6101326104d3565b005b61014e60048036038101906101499190611029565b610626565b005b6101586106a7565b6040516101659190611232565b60405180910390f35b61018860048036038101906101839190610f25565b6106d0565b005b6000600860009054906101000a900473ffffffffffffffffffffffffffffffffffffffff1673ffffffffffffffffffffffffffffffffffffffff1663e98b7f4d836040518263ffffffff1660e01b81526004016101e791906112f5565b6101406040518083038186803b15801561020057600080fd5b505afa158015610214573d6000803e3d6000fd5b505050506040513d601f19601f820116820180604052508101906102389190610f4e565b909192939495969798509091929394959697509091929394959650909192939495509091929394509091929350909192509091509050809150506102b283826040518060400160405280600581526020017f6b69747479000000000000000000000000000000000000000000000000000000815250610892565b505050565b600581815481106102c757600080fd5b90600052602060002090600302016000915090508060000180546102ea90611539565b80601f016020809104026020016040519081016040528092919081815260200182805461031690611539565b80156103635780601f1061033857610100808354040283529160200191610363565b820191906000526020600020905b81548152906001019060200180831161034657829003601f168201915b5050505050908060010154908060020160009054906101000a900463ffffffff16908060020160049054906101000a900463ffffffff16908060020160089054906101000a900461ffff169080600201600a9054906101000a900461ffff16905086565b60066020528060005260406000206000915054906101000a900473ffffffffffffffffffffffffffffffffffffffff1681565b610402610a51565b73ffffffffffffffffffffffffffffffffffffffff1660008054906101000a900473ffffffffffffffffffffffffffffffffffffffff1673ffffffffffffffffffffffffffffffffffffffff161461048f576040517f08c379a0000000000000000000000000000000000000000000000000000000008152600401610486906112d5565b60405180910390fd5b80600860006101000a81548173ffffffffffffffffffffffffffffffffffffffff021916908373ffffffffffffffffffffffffffffffffffffffff16021790555050565b6104db610a51565b73ffffffffffffffffffffffffffffffffffffffff1660008054906101000a900473ffffffffffffffffffffffffffffffffffffffff1673ffffffffffffffffffffffffffffffffffffffff1614610568576040517f08c379a000000000000000000000000000000000000000000000000000000000815260040161055f906112d5565b60405180910390fd5b600073ffffffffffffffffffffffffffffffffffffffff1660008054906101000a900473ffffffffffffffffffffffffffffffffffffffff1673ffffffffffffffffffffffffffffffffffffffff167f8be0079c531659141344cd1fd0a4f28419497f9722a3daafe3b4186f6b6457e060405160405180910390a360008060006101000a81548173ffffffffffffffffffffffffffffffffffffffff021916908373ffffffffffffffffffffffffffffffffffffffff160217905550565b6000600760003373ffffffffffffffffffffffffffffffffffffffff1673ffffffffffffffffffffffffffffffffffffffff168152602001908152602001600020541461067257600080fd5b600061067d82610a59565b905060648161068c91906115b4565b81610697919061145d565b90506106a38282610a9e565b5050565b60008060009054906101000a900473ffffffffffffffffffffffffffffffffffffffff16905090565b6106d8610a51565b73ffffffffffffffffffffffffffffffffffffffff1660008054906101000a900473ffffffffffffffffffffffffffffffffffffffff1673ffffffffffffffffffffffffffffffffffffffff1614610765576040517f08c379a000000000000000000000000000000000000000000000000000000000815260040161075c906112d5565b60405180910390fd5b600073ffffffffffffffffffffffffffffffffffffffff168173ffffffffffffffffffffffffffffffffffffffff1614156107d5576040517f08c379a00000000000000000000000000000000000000000000000000000000081526004016107cc906112b5565b60405180910390fd5b8073ffffffffffffffffffffffffffffffffffffffff1660008054906101000a900473ffffffffffffffffffffffffffffffffffffffff1673ffffffffffffffffffffffffffffffffffffffff167f8be0079c531659141344cd1fd0a4f28419497f9722a3daafe3b4186f6b6457e060405160405180910390a3806000806101000a81548173ffffffffffffffffffffffffffffffffffffffff021916908373ffffffffffffffffffffffffffffffffffffffff16021790555050565b826006600082815260200190815260200160002060009054906101000a900473ffffffffffffffffffffffffffffffffffffffff1673ffffffffffffffffffffffffffffffffffffffff163373ffffffffffffffffffffffffffffffffffffffff16146108fe57600080fd5b60006005858154811061093a577f4e487b7100000000000000000000000000000000000000000000000000000000600052603260045260246000fd5b9060005260206000209060030201905061095381610d1a565b61095c57600080fd5b6002548461096a91906115b4565b93506000600285836001015461098091906113d6565b61098a919061142c565b90507f8d53323b21b9f304546f6d3e61cde865451064d614aa4912f395b755a9d8cad9846040516020016109be919061121b565b604051602081830303815290604052805190602001201415610a015760636064826109e991906115b4565b826109f4919061145d565b6109fe91906113d6565b90505b610a406040518060400160405280600681526020017f4e6f4e616d65000000000000000000000000000000000000000000000000000081525082610a9e565b610a4982610d41565b505050505050565b600033905090565b60008082604051602001610a6d919061121b565b6040516020818303038152906040528051906020012060001c905060025481610a9691906115b4565b915050919050565b60056040518060c00160405280848152602001838152602001600163ffffffff16815260200160035442610ad291906113d6565b63ffffffff168152602001600061ffff168152602001600061ffff1681525090806001815401808255809150506001900390600052602060002090600302016000909190919091506000820151816000019080519060200190610b36929190610dc6565b506020820151816001015560408201518160020160006101000a81548163ffffffff021916908363ffffffff16021790555060608201518160020160046101000a81548163ffffffff021916908363ffffffff16021790555060808201518160020160086101000a81548161ffff021916908361ffff16021790555060a082015181600201600a6101000a81548161ffff021916908361ffff16021790555050503360066000600454815260200190815260200160002060006101000a81548173ffffffffffffffffffffffffffffffffffffffff021916908373ffffffffffffffffffffffffffffffffffffffff160217905550610c7e6001600760003373ffffffffffffffffffffffffffffffffffffffff1673ffffffffffffffffffffffffffffffffffffffff16815260200190815260200160002054610d7490919063ffffffff16565b600760003373ffffffffffffffffffffffffffffffffffffffff1673ffffffffffffffffffffffffffffffffffffffff168152602001908152602001600020819055507f88f026aacbbecc90c18411df4b1185fd8d9be2470f1962f192bf84a27d0704b76004548383604051610cf693929190611310565b60405180910390a160046000815480929190610d119061156b565b91905055505050565b6000428260020160049054906101000a900463ffffffff1663ffffffff1611159050919050565b60035442610d4f91906113d6565b8160020160046101000a81548163ffffffff021916908363ffffffff16021790555050565b6000808284610d8391906113d6565b905083811015610dbc577f4e487b7100000000000000000000000000000000000000000000000000000000600052600160045260246000fd5b8091505092915050565b828054610dd290611539565b90600052602060002090601f016020900481019282610df45760008555610e3b565b82601f10610e0d57805160ff1916838001178555610e3b565b82800160010185558215610e3b579182015b82811115610e3a578251825591602001919060010190610e1f565b5b509050610e489190610e4c565b5090565b5b80821115610e65576000816000905550600101610e4d565b5090565b6000610e7c610e778461137f565b61134e565b905082815260208101848484011115610e9457600080fd5b610e9f8482856114f7565b509392505050565b600081359050610eb6816116b2565b92915050565b600081519050610ecb816116c9565b92915050565b600082601f830112610ee257600080fd5b8135610ef2848260208601610e69565b91505092915050565b600081359050610f0a816116e0565b92915050565b600081519050610f1f816116e0565b92915050565b600060208284031215610f3757600080fd5b6000610f4584828501610ea7565b91505092915050565b6000806000806000806000806000806101408b8d031215610f6e57600080fd5b6000610f7c8d828e01610ebc565b9a50506020610f8d8d828e01610ebc565b9950506040610f9e8d828e01610f10565b9850506060610faf8d828e01610f10565b9750506080610fc08d828e01610f10565b96505060a0610fd18d828e01610f10565b95505060c0610fe28d828e01610f10565b94505060e0610ff38d828e01610f10565b9350506101006110058d828e01610f10565b9250506101206110178d828e01610f10565b9150509295989b9194979a5092959850565b60006020828403121561103b57600080fd5b600082013567ffffffffffffffff81111561105557600080fd5b61106184828501610ed1565b91505092915050565b60006020828403121561107c57600080fd5b600061108a84828501610efb565b91505092915050565b600080604083850312156110a657600080fd5b60006110b485828601610efb565b92505060206110c585828601610efb565b9150509250929050565b6110d881611491565b82525050565b60006110e9826113af565b6110f381856113ba565b9350611103818560208601611506565b61110c816116a1565b840191505092915050565b6000611122826113af565b61112c81856113cb565b935061113c818560208601611506565b80840191505092915050565b60006111556026836113ba565b91507f4f776e61626c653a206e6577206f776e657220697320746865207a65726f206160008301527f64647265737300000000000000000000000000000000000000000000000000006020830152604082019050919050565b60006111bb6020836113ba565b91507f4f776e61626c653a2063616c6c6572206973206e6f7420746865206f776e65726000830152602082019050919050565b6111f7816114af565b82525050565b611206816114dd565b82525050565b611215816114e7565b82525050565b60006112278284611117565b915081905092915050565b600060208201905061124760008301846110cf565b92915050565b600060c082019050818103600083015261126781896110de565b905061127660208301886111fd565b611283604083018761120c565b611290606083018661120c565b61129d60808301856111ee565b6112aa60a08301846111ee565b979650505050505050565b600060208201905081810360008301526112ce81611148565b9050919050565b600060208201905081810360008301526112ee816111ae565b9050919050565b600060208201905061130a60008301846111fd565b92915050565b600060608201905061132560008301866111fd565b818103602083015261133781856110de565b905061134660408301846111fd565b949350505050565b6000604051905081810181811067ffffffffffffffff8211171561137557611374611672565b5b8060405250919050565b600067ffffffffffffffff82111561139a57611399611672565b5b601f19601f8301169050602081019050919050565b600081519050919050565b600082825260208201905092915050565b600081905092915050565b60006113e1826114dd565b91506113ec836114dd565b9250827fffffffffffffffffffffffffffffffffffffffffffffffffffffffffffffffff03821115611421576114206115e5565b5b828201905092915050565b6000611437826114dd565b9150611442836114dd565b92508261145257611451611614565b5b828204905092915050565b6000611468826114dd565b9150611473836114dd565b925082821015611486576114856115e5565b5b828203905092915050565b600061149c826114bd565b9050919050565b60008115159050919050565b600061ffff82169050919050565b600073ffffffffffffffffffffffffffffffffffffffff82169050919050565b6000819050919050565b600063ffffffff82169050919050565b82818337600083830152505050565b60005b83811015611524578082015181840152602081019050611509565b83811115611533576000848401525b50505050565b6000600282049050600182168061155157607f821691505b6020821081141561156557611564611643565b5b50919050565b6000611576826114dd565b91507fffffffffffffffffffffffffffffffffffffffffffffffffffffffffffffffff8214156115a9576115a86115e5565b5b600182019050919050565b60006115bf826114dd565b91506115ca836114dd565b9250826115da576115d9611614565b5b828206905092915050565b7f4e487b7100000000000000000000000000000000000000000000000000000000600052601160045260246000fd5b7f4e487b7100000000000000000000000000000000000000000000000000000000600052601260045260246000fd5b7f4e487b7100000000000000000000000000000000000000000000000000000000600052602260045260246000fd5b7f4e487b7100000000000000000000000000000000000000000000000000000000600052604160045260246000fd5b6000601f19601f8301169050919050565b6116bb81611491565b81146116c657600080fd5b50565b6116d2816114a3565b81146116dd57600080fd5b50565b6116e9816114dd565b81146116f457600080fd5b5056fea264697066735822122068f0fed791b5b55759fb50191decde273825e3b679169c3039f6a29eb7cd745964736f6c63430008000033",
  "immutableReferences": {},
  "source": "// SPDX-License-Identifier: WaqasWahid\npragma solidity ^0.8.0;\n\nimport \"./ZombieFactory.sol\";\n\nabstract contract KittyInterface {\n\n  function getKitty(uint256 _id) external virtual view returns (\n    bool isGestating,\n    bool isReady,\n    uint256 cooldownIndex,\n    uint256 nextActionAt,\n    uint256 siringWithId,\n    uint256 birthTime,\n    uint256 matronId,\n    uint256 sireId,\n    uint256 generation,\n    uint256 genes\n  );\n}\n\ncontract ZombieFeeding is ZombieFactory {\n\n  KittyInterface kittyContract;\n\n  // 1. Change modifier name to `onlyOwnerOf`\n  modifier onlyOwnerOf(uint _zombieId) {\n    require(msg.sender == zombieToOwner[_zombieId]);\n    _;\n  }\n\n  function setKittyContractAddress(address _address) external onlyOwner {\n    kittyContract = KittyInterface(_address);\n  }\n\n  function _triggerCooldown(Zombie storage _zombie) internal {\n    _zombie.readyTime = uint32(block.timestamp + cooldownTime);\n  }\n\n  function _isReady(Zombie storage _zombie) internal view returns (bool) {\n      return (_zombie.readyTime <= block.timestamp);\n  }\n\n  // 2. Change modifier name here as well\n  function feedAndMultiply(uint _zombieId, uint _targetDna, string memory _species) internal onlyOwnerOf(_zombieId) {\n    Zombie storage myZombie = zombies[_zombieId];\n    require(_isReady(myZombie));\n    _targetDna = _targetDna % dnaModulus;\n    uint newDna = (myZombie.dna + _targetDna) / 2;\n    if (keccak256(abi.encodePacked(_species)) == keccak256(\"kitty\")) {\n      newDna = newDna - newDna % 100 + 99;\n    }\n    _createZombie(\"NoName\", newDna);\n    _triggerCooldown(myZombie);\n  }\n\n  function feedOnKitty(uint _zombieId, uint _kittyId) public {\n    uint kittyDna;\n    (,,,,,,,,,kittyDna) = kittyContract.getKitty(_kittyId);\n    feedAndMultiply(_zombieId, kittyDna, \"kitty\");\n  }\n}",
  "sourcePath": "/home/waqas/Desktop/cryptozombies/contracts/ZombieFeeding.sol",
  "compiler": {
    "name": "solc",
    "version": "0.8.0+commit.c7dfd78e.Emscripten.clang"
  },
  "schemaVersion": "3.4.1",
  "updatedAt": "2021-09-18T15:59:07.307Z",
  "networkType": "ethereum",
  "devdoc": {
    "kind": "dev",
    "methods": {
      "owner()": {
        "details": "Returns the address of the current owner."
      },
      "renounceOwnership()": {
        "details": "Leaves the contract without owner. It will not be possible to call `onlyOwner` functions anymore. Can only be called by the current owner. NOTE: Renouncing ownership will leave the contract without an owner, thereby removing any functionality that is only available to the owner."
      },
      "transferOwnership(address)": {
        "details": "Transfers ownership of the contract to a new account (`newOwner`). Can only be called by the current owner."
      }
    },
    "version": 1
  },
  "userdoc": {
    "kind": "user",
    "methods": {},
    "version": 1
  }
}