{
  "contractName": "ZombieHelper",
  "abi": [
    {
      "anonymous": false,
      "inputs": [
        {
          "indexed": false,
          "internalType": "uint256",
          "name": "zombieId",
          "type": "uint256"
        },
        {
          "indexed": false,
          "internalType": "string",
          "name": "name",
          "type": "string"
        },
        {
          "indexed": false,
          "internalType": "uint256",
          "name": "dna",
          "type": "uint256"
        }
      ],
      "name": "NewZombie",
      "type": "event"
    },
    {
      "anonymous": false,
      "inputs": [
        {
          "indexed": true,
          "internalType": "address",
          "name": "previousOwner",
          "type": "address"
        },
        {
          "indexed": true,
          "internalType": "address",
          "name": "newOwner",
          "type": "address"
        }
      ],
      "name": "OwnershipTransferred",
      "type": "event"
    },
    {
      "inputs": [
        {
          "internalType": "string",
          "name": "_name",
          "type": "string"
        }
      ],
      "name": "createRandomZombie",
      "outputs": [],
      "stateMutability": "nonpayable",
      "type": "function"
    },
    {
      "inputs": [
        {
          "internalType": "uint256",
          "name": "_zombieId",
          "type": "uint256"
        },
        {
          "internalType": "uint256",
          "name": "_kittyId",
          "type": "uint256"
        }
      ],
      "name": "feedOnKitty",
      "outputs": [],
      "stateMutability": "nonpayable",
      "type": "function"
    },
    {
      "inputs": [],
      "name": "owner",
      "outputs": [
        {
          "internalType": "address",
          "name": "",
          "type": "address"
        }
      ],
      "stateMutability": "view",
      "type": "function",
      "constant": true
    },
    {
      "inputs": [],
      "name": "renounceOwnership",
      "outputs": [],
      "stateMutability": "nonpayable",
      "type": "function"
    },
    {
      "inputs": [
        {
          "internalType": "address",
          "name": "_address",
          "type": "address"
        }
      ],
      "name": "setKittyContractAddress",
      "outputs": [],
      "stateMutability": "nonpayable",
      "type": "function"
    },
    {
      "inputs": [
        {
          "internalType": "address",
          "name": "newOwner",
          "type": "address"
        }
      ],
      "name": "transferOwnership",
      "outputs": [],
      "stateMutability": "nonpayable",
      "type": "function"
    },
    {
      "inputs": [
        {
          "internalType": "uint256",
          "name": "",
          "type": "uint256"
        }
      ],
      "name": "zombieToOwner",
      "outputs": [
        {
          "internalType": "address",
          "name": "",
          "type": "address"
        }
      ],
      "stateMutability": "view",
      "type": "function",
      "constant": true
    },
    {
      "inputs": [
        {
          "internalType": "uint256",
          "name": "",
          "type": "uint256"
        }
      ],
      "name": "zombies",
      "outputs": [
        {
          "internalType": "string",
          "name": "name",
          "type": "string"
        },
        {
          "internalType": "uint256",
          "name": "dna",
          "type": "uint256"
        },
        {
          "internalType": "uint32",
          "name": "level",
          "type": "uint32"
        },
        {
          "internalType": "uint32",
          "name": "readyTime",
          "type": "uint32"
        },
        {
          "internalType": "uint16",
          "name": "winCount",
          "type": "uint16"
        },
        {
          "internalType": "uint16",
          "name": "lossCount",
          "type": "uint16"
        }
      ],
      "stateMutability": "view",
      "type": "function",
      "constant": true
    },
    {
      "inputs": [
        {
          "internalType": "uint256",
          "name": "_fee",
          "type": "uint256"
        }
      ],
      "name": "setLevelUpFee",
      "outputs": [],
      "stateMutability": "nonpayable",
      "type": "function"
    },
    {
      "inputs": [
        {
          "internalType": "uint256",
          "name": "_zombieId",
          "type": "uint256"
        }
      ],
      "name": "levelUp",
      "outputs": [],
      "stateMutability": "payable",
      "type": "function",
      "payable": true
    },
    {
      "inputs": [
        {
          "internalType": "uint256",
          "name": "_zombieId",
          "type": "uint256"
        },
        {
          "internalType": "string",
          "name": "_newName",
          "type": "string"
        }
      ],
      "name": "changeName",
      "outputs": [],
      "stateMutability": "nonpayable",
      "type": "function"
    },
    {
      "inputs": [
        {
          "internalType": "uint256",
          "name": "_zombieId",
          "type": "uint256"
        },
        {
          "internalType": "uint256",
          "name": "_newDna",
          "type": "uint256"
        }
      ],
      "name": "changeDna",
      "outputs": [],
      "stateMutability": "nonpayable",
      "type": "function"
    },
    {
      "inputs": [
        {
          "internalType": "address",
          "name": "_owner",
          "type": "address"
        }
      ],
      "name": "getZombiesByOwner",
      "outputs": [
        {
          "internalType": "uint256[]",
          "name": "",
          "type": "uint256[]"
        }
      ],
      "stateMutability": "view",
      "type": "function",
      "constant": true
    }
  ],
  "bytecode": "0x60806040526010600155600154600a6200001a91906200015b565b60025562015180600355600060045566038d7ea4c680006009553480156200004157600080fd5b50600062000054620000f860201b60201c565b9050806000806101000a81548173ffffffffffffffffffffffffffffffffffffffff021916908373ffffffffffffffffffffffffffffffffffffffff1602179055508073ffffffffffffffffffffffffffffffffffffffff16600073ffffffffffffffffffffffffffffffffffffffff167f8be0079c531659141344cd1fd0a4f28419497f9722a3daafe3b4186f6b6457e060405160405180910390a350620002de565b600033905090565b6000808291508390505b600185111562000152578086048111156200012a5762000129620002a2565b5b60018516156200013a5780820291505b80810290506200014a85620002d1565b94506200010a565b94509492505050565b6000620001688262000298565b9150620001758362000298565b9250620001a47fffffffffffffffffffffffffffffffffffffffffffffffffffffffffffffffff8484620001ac565b905092915050565b600082620001be576001905062000291565b81620001ce576000905062000291565b8160018114620001e75760028114620001f25762000228565b600191505062000291565b60ff841115620002075762000206620002a2565b5b8360020a915084821115620002215762000220620002a2565b5b5062000291565b5060208310610133831016604e8410600b8410161715620002625782820a9050838111156200025c576200025b620002a2565b5b62000291565b62000271848484600162000100565b925090508184048111156200028b576200028a620002a2565b5b81810290505b9392505050565b6000819050919050565b7f4e487b7100000000000000000000000000000000000000000000000000000000600052601160045260246000fd5b60008160011c9050919050565b611f5580620002ee6000396000f3fe6080604052600436106100c25760003560e01c80635faf28801161007f5780638da5cb5b116100595780638da5cb5b1461025a578063c39cbef114610285578063ccf670f8146102ae578063f2fde38b146102d7576100c2565b80635faf2880146101f1578063715018a61461021a5780637bff0a0114610231576100c2565b80630ce90ec2146100c757806317a7f4cc146100e35780632052465e1461010c5780634412e1041461014e578063528b7b8f1461018b5780635f4623f1146101c8575b600080fd5b6100e160048036038101906100dc9190611731565b610300565b005b3480156100ef57600080fd5b5061010a600480360381019061010591906117ae565b61039b565b005b34801561011857600080fd5b50610133600480360381019061012e9190611731565b6104c8565b60405161014596959493929190611a0f565b60405180910390f35b34801561015a57600080fd5b50610175600480360381019061017091906115ec565b6105d8565b60405161018291906119ed565b60405180910390f35b34801561019757600080fd5b506101b260048036038101906101ad9190611731565b610777565b6040516101bf91906119d2565b60405180910390f35b3480156101d457600080fd5b506101ef60048036038101906101ea91906115ec565b6107aa565b005b3480156101fd57600080fd5b50610218600480360381019061021391906117ae565b610883565b005b34801561022657600080fd5b5061022f6109b7565b005b34801561023d57600080fd5b50610258600480360381019061025391906116f0565b610b0a565b005b34801561026657600080fd5b5061026f610b8b565b60405161027c91906119d2565b60405180910390f35b34801561029157600080fd5b506102ac60048036038101906102a7919061175a565b610bb4565b005b3480156102ba57600080fd5b506102d560048036038101906102d09190611731565b610cf8565b005b3480156102e357600080fd5b506102fe60048036038101906102f991906115ec565b610d97565b005b600954341461030e57600080fd5b60058181548110610348577f4e487b7100000000000000000000000000000000000000000000000000000000600052603260045260246000fd5b9060005260206000209060030201600201600081819054906101000a900463ffffffff168092919061037990611daf565b91906101000a81548163ffffffff021916908363ffffffff1602179055505050565b6000600860009054906101000a900473ffffffffffffffffffffffffffffffffffffffff1673ffffffffffffffffffffffffffffffffffffffff1663e98b7f4d836040518263ffffffff1660e01b81526004016103f89190611ab7565b6101406040518083038186803b15801561041157600080fd5b505afa158015610425573d6000803e3d6000fd5b505050506040513d601f19601f820116820180604052508101906104499190611615565b909192939495969798509091929394959697509091929394959650909192939495509091929394509091929350909192509091509050809150506104c383826040518060400160405280600581526020017f6b69747479000000000000000000000000000000000000000000000000000000815250610f59565b505050565b600581815481106104d857600080fd5b90600052602060002090600302016000915090508060000180546104fb90611d34565b80601f016020809104026020016040519081016040528092919081815260200182805461052790611d34565b80156105745780601f1061054957610100808354040283529160200191610574565b820191906000526020600020905b81548152906001019060200180831161055757829003601f168201915b5050505050908060010154908060020160009054906101000a900463ffffffff16908060020160049054906101000a900463ffffffff16908060020160089054906101000a900461ffff169080600201600a9054906101000a900461ffff16905086565b60606000600760008473ffffffffffffffffffffffffffffffffffffffff1673ffffffffffffffffffffffffffffffffffffffff1681526020019081526020016000205467ffffffffffffffff81111561065b577f4e487b7100000000000000000000000000000000000000000000000000000000600052604160045260246000fd5b6040519080825280602002602001820160405280156106895781602001602082028036833780820191505090505b5090506000805b60058054905081101561076c578473ffffffffffffffffffffffffffffffffffffffff166006600083815260200190815260200160002060009054906101000a900473ffffffffffffffffffffffffffffffffffffffff1673ffffffffffffffffffffffffffffffffffffffff161415610759578083838151811061073e577f4e487b7100000000000000000000000000000000000000000000000000000000600052603260045260246000fd5b602002602001018181525050818061075590611d66565b9250505b808061076490611d66565b915050610690565b508192505050919050565b60066020528060005260406000206000915054906101000a900473ffffffffffffffffffffffffffffffffffffffff1681565b6107b2611118565b73ffffffffffffffffffffffffffffffffffffffff1660008054906101000a900473ffffffffffffffffffffffffffffffffffffffff1673ffffffffffffffffffffffffffffffffffffffff161461083f576040517f08c379a000000000000000000000000000000000000000000000000000000000815260040161083690611a97565b60405180910390fd5b80600860006101000a81548173ffffffffffffffffffffffffffffffffffffffff021916908373ffffffffffffffffffffffffffffffffffffffff16021790555050565b60148281600582815481106108c1577f4e487b7100000000000000000000000000000000000000000000000000000000600052603260045260246000fd5b906000526020600020906003020160020160009054906101000a900463ffffffff1663ffffffff1610156108f457600080fd5b836006600082815260200190815260200160002060009054906101000a900473ffffffffffffffffffffffffffffffffffffffff1673ffffffffffffffffffffffffffffffffffffffff163373ffffffffffffffffffffffffffffffffffffffff161461096057600080fd5b836005868154811061099b577f4e487b7100000000000000000000000000000000000000000000000000000000600052603260045260246000fd5b9060005260206000209060030201600101819055505050505050565b6109bf611118565b73ffffffffffffffffffffffffffffffffffffffff1660008054906101000a900473ffffffffffffffffffffffffffffffffffffffff1673ffffffffffffffffffffffffffffffffffffffff1614610a4c576040517f08c379a0000000000000000000000000000000000000000000000000000000008152600401610a4390611a97565b60405180910390fd5b600073ffffffffffffffffffffffffffffffffffffffff1660008054906101000a900473ffffffffffffffffffffffffffffffffffffffff1673ffffffffffffffffffffffffffffffffffffffff167f8be0079c531659141344cd1fd0a4f28419497f9722a3daafe3b4186f6b6457e060405160405180910390a360008060006101000a81548173ffffffffffffffffffffffffffffffffffffffff021916908373ffffffffffffffffffffffffffffffffffffffff160217905550565b6000600760003373ffffffffffffffffffffffffffffffffffffffff1673ffffffffffffffffffffffffffffffffffffffff1681526020019081526020016000205414610b5657600080fd5b6000610b6182611120565b9050606481610b709190611ddc565b81610b7b9190611c58565b9050610b878282611165565b5050565b60008060009054906101000a900473ffffffffffffffffffffffffffffffffffffffff16905090565b6002828160058281548110610bf2577f4e487b7100000000000000000000000000000000000000000000000000000000600052603260045260246000fd5b906000526020600020906003020160020160009054906101000a900463ffffffff1663ffffffff161015610c2557600080fd5b836006600082815260200190815260200160002060009054906101000a900473ffffffffffffffffffffffffffffffffffffffff1673ffffffffffffffffffffffffffffffffffffffff163373ffffffffffffffffffffffffffffffffffffffff1614610c9157600080fd5b8360058681548110610ccc577f4e487b7100000000000000000000000000000000000000000000000000000000600052603260045260246000fd5b90600052602060002090600302016000019080519060200190610cf092919061148d565b505050505050565b610d00611118565b73ffffffffffffffffffffffffffffffffffffffff1660008054906101000a900473ffffffffffffffffffffffffffffffffffffffff1673ffffffffffffffffffffffffffffffffffffffff1614610d8d576040517f08c379a0000000000000000000000000000000000000000000000000000000008152600401610d8490611a97565b60405180910390fd5b8060098190555050565b610d9f611118565b73ffffffffffffffffffffffffffffffffffffffff1660008054906101000a900473ffffffffffffffffffffffffffffffffffffffff1673ffffffffffffffffffffffffffffffffffffffff1614610e2c576040517f08c379a0000000000000000000000000000000000000000000000000000000008152600401610e2390611a97565b60405180910390fd5b600073ffffffffffffffffffffffffffffffffffffffff168173ffffffffffffffffffffffffffffffffffffffff161415610e9c576040517f08c379a0000000000000000000000000000000000000000000000000000000008152600401610e9390611a77565b60405180910390fd5b8073ffffffffffffffffffffffffffffffffffffffff1660008054906101000a900473ffffffffffffffffffffffffffffffffffffffff1673ffffffffffffffffffffffffffffffffffffffff167f8be0079c531659141344cd1fd0a4f28419497f9722a3daafe3b4186f6b6457e060405160405180910390a3806000806101000a81548173ffffffffffffffffffffffffffffffffffffffff021916908373ffffffffffffffffffffffffffffffffffffffff16021790555050565b826006600082815260200190815260200160002060009054906101000a900473ffffffffffffffffffffffffffffffffffffffff1673ffffffffffffffffffffffffffffffffffffffff163373ffffffffffffffffffffffffffffffffffffffff1614610fc557600080fd5b600060058581548110611001577f4e487b7100000000000000000000000000000000000000000000000000000000600052603260045260246000fd5b9060005260206000209060030201905061101a816113e1565b61102357600080fd5b600254846110319190611ddc565b9350600060028583600101546110479190611bd1565b6110519190611c27565b90507f8d53323b21b9f304546f6d3e61cde865451064d614aa4912f395b755a9d8cad98460405160200161108591906119bb565b6040516020818303038152906040528051906020012014156110c85760636064826110b09190611ddc565b826110bb9190611c58565b6110c59190611bd1565b90505b6111076040518060400160405280600681526020017f4e6f4e616d65000000000000000000000000000000000000000000000000000081525082611165565b61111082611408565b505050505050565b600033905090565b6000808260405160200161113491906119bb565b6040516020818303038152906040528051906020012060001c90506002548161115d9190611ddc565b915050919050565b60056040518060c00160405280848152602001838152602001600163ffffffff168152602001600354426111999190611bd1565b63ffffffff168152602001600061ffff168152602001600061ffff16815250908060018154018082558091505060019003906000526020600020906003020160009091909190915060008201518160000190805190602001906111fd92919061148d565b506020820151816001015560408201518160020160006101000a81548163ffffffff021916908363ffffffff16021790555060608201518160020160046101000a81548163ffffffff021916908363ffffffff16021790555060808201518160020160086101000a81548161ffff021916908361ffff16021790555060a082015181600201600a6101000a81548161ffff021916908361ffff16021790555050503360066000600454815260200190815260200160002060006101000a81548173ffffffffffffffffffffffffffffffffffffffff021916908373ffffffffffffffffffffffffffffffffffffffff1602179055506113456001600760003373ffffffffffffffffffffffffffffffffffffffff1673ffffffffffffffffffffffffffffffffffffffff1681526020019081526020016000205461143b90919063ffffffff16565b600760003373ffffffffffffffffffffffffffffffffffffffff1673ffffffffffffffffffffffffffffffffffffffff168152602001908152602001600020819055507f88f026aacbbecc90c18411df4b1185fd8d9be2470f1962f192bf84a27d0704b760045483836040516113bd93929190611ad2565b60405180910390a1600460008154809291906113d890611d66565b91905055505050565b6000428260020160049054906101000a900463ffffffff1663ffffffff1611159050919050565b600354426114169190611bd1565b8160020160046101000a81548163ffffffff021916908363ffffffff16021790555050565b600080828461144a9190611bd1565b905083811015611483577f4e487b7100000000000000000000000000000000000000000000000000000000600052600160045260246000fd5b8091505092915050565b82805461149990611d34565b90600052602060002090601f0160209004810192826114bb5760008555611502565b82601f106114d457805160ff1916838001178555611502565b82800160010185558215611502579182015b828111156115015782518255916020019190600101906114e6565b5b50905061150f9190611513565b5090565b5b8082111561152c576000816000905550600101611514565b5090565b600061154361153e84611b41565b611b10565b90508281526020810184848401111561155b57600080fd5b611566848285611cf2565b509392505050565b60008135905061157d81611eda565b92915050565b60008151905061159281611ef1565b92915050565b600082601f8301126115a957600080fd5b81356115b9848260208601611530565b91505092915050565b6000813590506115d181611f08565b92915050565b6000815190506115e681611f08565b92915050565b6000602082840312156115fe57600080fd5b600061160c8482850161156e565b91505092915050565b6000806000806000806000806000806101408b8d03121561163557600080fd5b60006116438d828e01611583565b9a505060206116548d828e01611583565b99505060406116658d828e016115d7565b98505060606116768d828e016115d7565b97505060806116878d828e016115d7565b96505060a06116988d828e016115d7565b95505060c06116a98d828e016115d7565b94505060e06116ba8d828e016115d7565b9350506101006116cc8d828e016115d7565b9250506101206116de8d828e016115d7565b9150509295989b9194979a5092959850565b60006020828403121561170257600080fd5b600082013567ffffffffffffffff81111561171c57600080fd5b61172884828501611598565b91505092915050565b60006020828403121561174357600080fd5b6000611751848285016115c2565b91505092915050565b6000806040838503121561176d57600080fd5b600061177b858286016115c2565b925050602083013567ffffffffffffffff81111561179857600080fd5b6117a485828601611598565b9150509250929050565b600080604083850312156117c157600080fd5b60006117cf858286016115c2565b92505060206117e0858286016115c2565b9150509250929050565b60006117f6838361198e565b60208301905092915050565b61180b81611c8c565b82525050565b600061181c82611b81565b6118268185611ba4565b935061183183611b71565b8060005b8381101561186257815161184988826117ea565b975061185483611b97565b925050600181019050611835565b5085935050505092915050565b600061187a82611b8c565b6118848185611bb5565b9350611894818560208601611d01565b61189d81611ec9565b840191505092915050565b60006118b382611b8c565b6118bd8185611bc6565b93506118cd818560208601611d01565b80840191505092915050565b60006118e6602683611bb5565b91507f4f776e61626c653a206e6577206f776e657220697320746865207a65726f206160008301527f64647265737300000000000000000000000000000000000000000000000000006020830152604082019050919050565b600061194c602083611bb5565b91507f4f776e61626c653a2063616c6c6572206973206e6f7420746865206f776e65726000830152602082019050919050565b61198881611caa565b82525050565b61199781611cd8565b82525050565b6119a681611cd8565b82525050565b6119b581611ce2565b82525050565b60006119c782846118a8565b915081905092915050565b60006020820190506119e76000830184611802565b92915050565b60006020820190508181036000830152611a078184611811565b905092915050565b600060c0820190508181036000830152611a29818961186f565b9050611a38602083018861199d565b611a4560408301876119ac565b611a5260608301866119ac565b611a5f608083018561197f565b611a6c60a083018461197f565b979650505050505050565b60006020820190508181036000830152611a90816118d9565b9050919050565b60006020820190508181036000830152611ab08161193f565b9050919050565b6000602082019050611acc600083018461199d565b92915050565b6000606082019050611ae7600083018661199d565b8181036020830152611af9818561186f565b9050611b08604083018461199d565b949350505050565b6000604051905081810181811067ffffffffffffffff82111715611b3757611b36611e9a565b5b8060405250919050565b600067ffffffffffffffff821115611b5c57611b5b611e9a565b5b601f19601f8301169050602081019050919050565b6000819050602082019050919050565b600081519050919050565b600081519050919050565b6000602082019050919050565b600082825260208201905092915050565b600082825260208201905092915050565b600081905092915050565b6000611bdc82611cd8565b9150611be783611cd8565b9250827fffffffffffffffffffffffffffffffffffffffffffffffffffffffffffffffff03821115611c1c57611c1b611e0d565b5b828201905092915050565b6000611c3282611cd8565b9150611c3d83611cd8565b925082611c4d57611c4c611e3c565b5b828204905092915050565b6000611c6382611cd8565b9150611c6e83611cd8565b925082821015611c8157611c80611e0d565b5b828203905092915050565b6000611c9782611cb8565b9050919050565b60008115159050919050565b600061ffff82169050919050565b600073ffffffffffffffffffffffffffffffffffffffff82169050919050565b6000819050919050565b600063ffffffff82169050919050565b82818337600083830152505050565b60005b83811015611d1f578082015181840152602081019050611d04565b83811115611d2e576000848401525b50505050565b60006002820490506001821680611d4c57607f821691505b60208210811415611d6057611d5f611e6b565b5b50919050565b6000611d7182611cd8565b91507fffffffffffffffffffffffffffffffffffffffffffffffffffffffffffffffff821415611da457611da3611e0d565b5b600182019050919050565b6000611dba82611ce2565b915063ffffffff821415611dd157611dd0611e0d565b5b600182019050919050565b6000611de782611cd8565b9150611df283611cd8565b925082611e0257611e01611e3c565b5b828206905092915050565b7f4e487b7100000000000000000000000000000000000000000000000000000000600052601160045260246000fd5b7f4e487b7100000000000000000000000000000000000000000000000000000000600052601260045260246000fd5b7f4e487b7100000000000000000000000000000000000000000000000000000000600052602260045260246000fd5b7f4e487b7100000000000000000000000000000000000000000000000000000000600052604160045260246000fd5b6000601f19601f8301169050919050565b611ee381611c8c565b8114611eee57600080fd5b50565b611efa81611c9e565b8114611f0557600080fd5b50565b611f1181611cd8565b8114611f1c57600080fd5b5056fea26469706673582212204e708a2eb656a4fd19ee4e0847f2ec727e20d6597a89d15eae1350856e61715964736f6c63430008000033",
  "immutableReferences": {},
  "source": "// SPDX-License-Identifier: WaqasWahid\npragma solidity ^0.8.0;\n\nimport \"./ZombieFeeding.sol\";\n\ncontract ZombieHelper is ZombieFeeding {\n\n  uint levelUpFee = 0.001 ether;\n\n  modifier aboveLevel(uint _level, uint _zombieId) {\n    require(zombies[_zombieId].level >= _level);\n    _;\n  }\n\n  // function withdraw() external onlyOwner {\n  //   payable(owner).transfer(address(this).balance);\n  // }\n\n  function setLevelUpFee(uint _fee) external onlyOwner {\n    levelUpFee = _fee;\n  }\n\n  function levelUp(uint _zombieId) external payable {\n    require(msg.value == levelUpFee);\n    zombies[_zombieId].level++;\n  }\n\n  // 1. Modify this function to use `ownerOf`:\n  function changeName(uint _zombieId, string memory _newName) external aboveLevel(2, _zombieId) onlyOwnerOf(_zombieId){\n    zombies[_zombieId].name = _newName;\n  }\n\n  // 2. Do the same with this function:\n  function changeDna(uint _zombieId, uint _newDna) external aboveLevel(20, _zombieId) onlyOwnerOf(_zombieId){\n    zombies[_zombieId].dna = _newDna;\n  }\n\n  function getZombiesByOwner(address _owner) external view returns(uint[] memory) {\n    uint[] memory result = new uint[](ownerZombieCount[_owner]);\n    uint counter = 0;\n    for (uint i = 0; i < zombies.length; i++) {\n      if (zombieToOwner[i] == _owner) {\n        result[counter] = i;\n        counter++;\n      }\n    }\n    return result;\n  }\n\n}",
  "sourcePath": "/home/waqas/Desktop/cryptozombies/contracts/ZombieHelper.sol",
  "compiler": {
    "name": "solc",
    "version": "0.8.0+commit.c7dfd78e.Emscripten.clang"
  },
  "schemaVersion": "3.4.1",
  "updatedAt": "2021-09-18T15:59:07.333Z",
  "networkType": "ethereum",
  "devdoc": {
    "kind": "dev",
    "methods": {
      "owner()": {
        "details": "Returns the address of the current owner."
      },
      "renounceOwnership()": {
        "details": "Leaves the contract without owner. It will not be possible to call `onlyOwner` functions anymore. Can only be called by the current owner. NOTE: Renouncing ownership will leave the contract without an owner, thereby removing any functionality that is only available to the owner."
      },
      "transferOwnership(address)": {
        "details": "Transfers ownership of the contract to a new account (`newOwner`). Can only be called by the current owner."
      }
    },
    "version": 1
  },
  "userdoc": {
    "kind": "user",
    "methods": {},
    "version": 1
  }
}