{
  "contractName": "ZombieAttack",
  "abi": [
    {
      "anonymous": false,
      "inputs": [
        {
          "indexed": false,
          "internalType": "uint256",
          "name": "zombieId",
          "type": "uint256"
        },
        {
          "indexed": false,
          "internalType": "string",
          "name": "name",
          "type": "string"
        },
        {
          "indexed": false,
          "internalType": "uint256",
          "name": "dna",
          "type": "uint256"
        }
      ],
      "name": "NewZombie",
      "type": "event"
    },
    {
      "anonymous": false,
      "inputs": [
        {
          "indexed": true,
          "internalType": "address",
          "name": "previousOwner",
          "type": "address"
        },
        {
          "indexed": true,
          "internalType": "address",
          "name": "newOwner",
          "type": "address"
        }
      ],
      "name": "OwnershipTransferred",
      "type": "event"
    },
    {
      "inputs": [
        {
          "internalType": "uint256",
          "name": "_zombieId",
          "type": "uint256"
        },
        {
          "internalType": "uint256",
          "name": "_newDna",
          "type": "uint256"
        }
      ],
      "name": "changeDna",
      "outputs": [],
      "stateMutability": "nonpayable",
      "type": "function"
    },
    {
      "inputs": [
        {
          "internalType": "uint256",
          "name": "_zombieId",
          "type": "uint256"
        },
        {
          "internalType": "string",
          "name": "_newName",
          "type": "string"
        }
      ],
      "name": "changeName",
      "outputs": [],
      "stateMutability": "nonpayable",
      "type": "function"
    },
    {
      "inputs": [
        {
          "internalType": "string",
          "name": "_name",
          "type": "string"
        }
      ],
      "name": "createRandomZombie",
      "outputs": [],
      "stateMutability": "nonpayable",
      "type": "function"
    },
    {
      "inputs": [
        {
          "internalType": "uint256",
          "name": "_zombieId",
          "type": "uint256"
        },
        {
          "internalType": "uint256",
          "name": "_kittyId",
          "type": "uint256"
        }
      ],
      "name": "feedOnKitty",
      "outputs": [],
      "stateMutability": "nonpayable",
      "type": "function"
    },
    {
      "inputs": [
        {
          "internalType": "address",
          "name": "_owner",
          "type": "address"
        }
      ],
      "name": "getZombiesByOwner",
      "outputs": [
        {
          "internalType": "uint256[]",
          "name": "",
          "type": "uint256[]"
        }
      ],
      "stateMutability": "view",
      "type": "function",
      "constant": true
    },
    {
      "inputs": [
        {
          "internalType": "uint256",
          "name": "_zombieId",
          "type": "uint256"
        }
      ],
      "name": "levelUp",
      "outputs": [],
      "stateMutability": "payable",
      "type": "function",
      "payable": true
    },
    {
      "inputs": [],
      "name": "owner",
      "outputs": [
        {
          "internalType": "address",
          "name": "",
          "type": "address"
        }
      ],
      "stateMutability": "view",
      "type": "function",
      "constant": true
    },
    {
      "inputs": [],
      "name": "renounceOwnership",
      "outputs": [],
      "stateMutability": "nonpayable",
      "type": "function"
    },
    {
      "inputs": [
        {
          "internalType": "address",
          "name": "_address",
          "type": "address"
        }
      ],
      "name": "setKittyContractAddress",
      "outputs": [],
      "stateMutability": "nonpayable",
      "type": "function"
    },
    {
      "inputs": [
        {
          "internalType": "uint256",
          "name": "_fee",
          "type": "uint256"
        }
      ],
      "name": "setLevelUpFee",
      "outputs": [],
      "stateMutability": "nonpayable",
      "type": "function"
    },
    {
      "inputs": [
        {
          "internalType": "address",
          "name": "newOwner",
          "type": "address"
        }
      ],
      "name": "transferOwnership",
      "outputs": [],
      "stateMutability": "nonpayable",
      "type": "function"
    },
    {
      "inputs": [
        {
          "internalType": "uint256",
          "name": "",
          "type": "uint256"
        }
      ],
      "name": "zombieToOwner",
      "outputs": [
        {
          "internalType": "address",
          "name": "",
          "type": "address"
        }
      ],
      "stateMutability": "view",
      "type": "function",
      "constant": true
    },
    {
      "inputs": [
        {
          "internalType": "uint256",
          "name": "",
          "type": "uint256"
        }
      ],
      "name": "zombies",
      "outputs": [
        {
          "internalType": "string",
          "name": "name",
          "type": "string"
        },
        {
          "internalType": "uint256",
          "name": "dna",
          "type": "uint256"
        },
        {
          "internalType": "uint32",
          "name": "level",
          "type": "uint32"
        },
        {
          "internalType": "uint32",
          "name": "readyTime",
          "type": "uint32"
        },
        {
          "internalType": "uint16",
          "name": "winCount",
          "type": "uint16"
        },
        {
          "internalType": "uint16",
          "name": "lossCount",
          "type": "uint16"
        }
      ],
      "stateMutability": "view",
      "type": "function",
      "constant": true
    },
    {
      "inputs": [
        {
          "internalType": "uint256",
          "name": "_zombieId",
          "type": "uint256"
        },
        {
          "internalType": "uint256",
          "name": "_targetId",
          "type": "uint256"
        }
      ],
      "name": "attack",
      "outputs": [],
      "stateMutability": "nonpayable",
      "type": "function"
    }
  ],
  "bytecode": "0x60806040526010600155600154600a6200001a919062000165565b60025562015180600355600060045566038d7ea4c680006009556000600a556046600b553480156200004b57600080fd5b5060006200005e6200010260201b60201c565b9050806000806101000a81548173ffffffffffffffffffffffffffffffffffffffff021916908373ffffffffffffffffffffffffffffffffffffffff1602179055508073ffffffffffffffffffffffffffffffffffffffff16600073ffffffffffffffffffffffffffffffffffffffff167f8be0079c531659141344cd1fd0a4f28419497f9722a3daafe3b4186f6b6457e060405160405180910390a350620002e8565b600033905090565b6000808291508390505b60018511156200015c57808604811115620001345762000133620002ac565b5b6001851615620001445780820291505b80810290506200015485620002db565b945062000114565b94509492505050565b60006200017282620002a2565b91506200017f83620002a2565b9250620001ae7fffffffffffffffffffffffffffffffffffffffffffffffffffffffffffffffff8484620001b6565b905092915050565b600082620001c857600190506200029b565b81620001d857600090506200029b565b8160018114620001f15760028114620001fc5762000232565b60019150506200029b565b60ff841115620002115762000210620002ac565b5b8360020a9150848211156200022b576200022a620002ac565b5b506200029b565b5060208310610133831016604e8410600b84101617156200026c5782820a905083811115620002665762000265620002ac565b5b6200029b565b6200027b84848460016200010a565b92509050818404811115620002955762000294620002ac565b5b81810290505b9392505050565b6000819050919050565b7f4e487b7100000000000000000000000000000000000000000000000000000000600052601160045260246000fd5b60008160011c9050919050565b6124af80620002f86000396000f3fe6080604052600436106100dd5760003560e01c8063715018a61161007f578063c39cbef111610059578063c39cbef1146102a0578063ccf670f8146102c9578063e1fa7638146102f2578063f2fde38b1461031b576100dd565b8063715018a6146102355780637bff0a011461024c5780638da5cb5b14610275576100dd565b80634412e104116100bb5780634412e10414610169578063528b7b8f146101a65780635f4623f1146101e35780635faf28801461020c576100dd565b80630ce90ec2146100e257806317a7f4cc146100fe5780632052465e14610127575b600080fd5b6100fc60048036038101906100f79190611b73565b610344565b005b34801561010a57600080fd5b5061012560048036038101906101209190611bf0565b6103df565b005b34801561013357600080fd5b5061014e60048036038101906101499190611b73565b61050c565b60405161016096959493929190611ebc565b60405180910390f35b34801561017557600080fd5b50610190600480360381019061018b9190611a2e565b61061c565b60405161019d9190611e9a565b60405180910390f35b3480156101b257600080fd5b506101cd60048036038101906101c89190611b73565b6107bb565b6040516101da9190611e7f565b60405180910390f35b3480156101ef57600080fd5b5061020a60048036038101906102059190611a2e565b6107ee565b005b34801561021857600080fd5b50610233600480360381019061022e9190611bf0565b6108c7565b005b34801561024157600080fd5b5061024a6109fb565b005b34801561025857600080fd5b50610273600480360381019061026e9190611b32565b610b4e565b005b34801561028157600080fd5b5061028a610bcf565b6040516102979190611e7f565b60405180910390f35b3480156102ac57600080fd5b506102c760048036038101906102c29190611b9c565b610bf8565b005b3480156102d557600080fd5b506102f060048036038101906102eb9190611b73565b610d3c565b005b3480156102fe57600080fd5b5061031960048036038101906103149190611bf0565b610ddb565b005b34801561032757600080fd5b50610342600480360381019061033d9190611a2e565b6110c1565b005b600954341461035257600080fd5b6005818154811061038c577f4e487b7100000000000000000000000000000000000000000000000000000000600052603260045260246000fd5b9060005260206000209060030201600201600081819054906101000a900463ffffffff16809291906103bd906122ce565b91906101000a81548163ffffffff021916908363ffffffff1602179055505050565b6000600860009054906101000a900473ffffffffffffffffffffffffffffffffffffffff1673ffffffffffffffffffffffffffffffffffffffff1663e98b7f4d836040518263ffffffff1660e01b815260040161043c9190611f64565b6101406040518083038186803b15801561045557600080fd5b505afa158015610469573d6000803e3d6000fd5b505050506040513d601f19601f8201168201806040525081019061048d9190611a57565b9091929394959697985090919293949596975090919293949596509091929394955090919293945090919293509091925090915090508091505061050783826040518060400160405280600581526020017f6b69747479000000000000000000000000000000000000000000000000000000815250611283565b505050565b6005818154811061051c57600080fd5b906000526020600020906003020160009150905080600001805461053f90612253565b80601f016020809104026020016040519081016040528092919081815260200182805461056b90612253565b80156105b85780601f1061058d576101008083540402835291602001916105b8565b820191906000526020600020905b81548152906001019060200180831161059b57829003601f168201915b5050505050908060010154908060020160009054906101000a900463ffffffff16908060020160049054906101000a900463ffffffff16908060020160089054906101000a900461ffff169080600201600a9054906101000a900461ffff16905086565b60606000600760008473ffffffffffffffffffffffffffffffffffffffff1673ffffffffffffffffffffffffffffffffffffffff1681526020019081526020016000205467ffffffffffffffff81111561069f577f4e487b7100000000000000000000000000000000000000000000000000000000600052604160045260246000fd5b6040519080825280602002602001820160405280156106cd5781602001602082028036833780820191505090505b5090506000805b6005805490508110156107b0578473ffffffffffffffffffffffffffffffffffffffff166006600083815260200190815260200160002060009054906101000a900473ffffffffffffffffffffffffffffffffffffffff1673ffffffffffffffffffffffffffffffffffffffff16141561079d5780838381518110610782577f4e487b7100000000000000000000000000000000000000000000000000000000600052603260045260246000fd5b602002602001018181525050818061079990612285565b9250505b80806107a890612285565b9150506106d4565b508192505050919050565b60066020528060005260406000206000915054906101000a900473ffffffffffffffffffffffffffffffffffffffff1681565b6107f6611442565b73ffffffffffffffffffffffffffffffffffffffff1660008054906101000a900473ffffffffffffffffffffffffffffffffffffffff1673ffffffffffffffffffffffffffffffffffffffff1614610883576040517f08c379a000000000000000000000000000000000000000000000000000000000815260040161087a90611f44565b60405180910390fd5b80600860006101000a81548173ffffffffffffffffffffffffffffffffffffffff021916908373ffffffffffffffffffffffffffffffffffffffff16021790555050565b6014828160058281548110610905577f4e487b7100000000000000000000000000000000000000000000000000000000600052603260045260246000fd5b906000526020600020906003020160020160009054906101000a900463ffffffff1663ffffffff16101561093857600080fd5b836006600082815260200190815260200160002060009054906101000a900473ffffffffffffffffffffffffffffffffffffffff1673ffffffffffffffffffffffffffffffffffffffff163373ffffffffffffffffffffffffffffffffffffffff16146109a457600080fd5b83600586815481106109df577f4e487b7100000000000000000000000000000000000000000000000000000000600052603260045260246000fd5b9060005260206000209060030201600101819055505050505050565b610a03611442565b73ffffffffffffffffffffffffffffffffffffffff1660008054906101000a900473ffffffffffffffffffffffffffffffffffffffff1673ffffffffffffffffffffffffffffffffffffffff1614610a90576040517f08c379a0000000000000000000000000000000000000000000000000000000008152600401610a8790611f44565b60405180910390fd5b600073ffffffffffffffffffffffffffffffffffffffff1660008054906101000a900473ffffffffffffffffffffffffffffffffffffffff1673ffffffffffffffffffffffffffffffffffffffff167f8be0079c531659141344cd1fd0a4f28419497f9722a3daafe3b4186f6b6457e060405160405180910390a360008060006101000a81548173ffffffffffffffffffffffffffffffffffffffff021916908373ffffffffffffffffffffffffffffffffffffffff160217905550565b6000600760003373ffffffffffffffffffffffffffffffffffffffff1673ffffffffffffffffffffffffffffffffffffffff1681526020019081526020016000205414610b9a57600080fd5b6000610ba58261144a565b9050606481610bb49190612329565b81610bbf9190612177565b9050610bcb828261148f565b5050565b60008060009054906101000a900473ffffffffffffffffffffffffffffffffffffffff16905090565b6002828160058281548110610c36577f4e487b7100000000000000000000000000000000000000000000000000000000600052603260045260246000fd5b906000526020600020906003020160020160009054906101000a900463ffffffff1663ffffffff161015610c6957600080fd5b836006600082815260200190815260200160002060009054906101000a900473ffffffffffffffffffffffffffffffffffffffff1673ffffffffffffffffffffffffffffffffffffffff163373ffffffffffffffffffffffffffffffffffffffff1614610cd557600080fd5b8360058681548110610d10577f4e487b7100000000000000000000000000000000000000000000000000000000600052603260045260246000fd5b90600052602060002090600302016000019080519060200190610d349291906118cf565b505050505050565b610d44611442565b73ffffffffffffffffffffffffffffffffffffffff1660008054906101000a900473ffffffffffffffffffffffffffffffffffffffff1673ffffffffffffffffffffffffffffffffffffffff1614610dd1576040517f08c379a0000000000000000000000000000000000000000000000000000000008152600401610dc890611f44565b60405180910390fd5b8060098190555050565b816006600082815260200190815260200160002060009054906101000a900473ffffffffffffffffffffffffffffffffffffffff1673ffffffffffffffffffffffffffffffffffffffff163373ffffffffffffffffffffffffffffffffffffffff1614610e4757600080fd5b600060058481548110610e83577f4e487b7100000000000000000000000000000000000000000000000000000000600052603260045260246000fd5b90600052602060002090600302019050600060058481548110610ecf577f4e487b7100000000000000000000000000000000000000000000000000000000600052603260045260246000fd5b906000526020600020906003020190506000610eeb606461170b565b9050600b54811161101f57610f2060018460020160089054906101000a900461ffff1661ffff1661176b90919063ffffffff16565b8360020160086101000a81548161ffff021916908361ffff160217905550610f6c60018460020160009054906101000a900463ffffffff1663ffffffff166117c590919063ffffffff16565b8360020160006101000a81548163ffffffff021916908363ffffffff160217905550610fb8600183600201600a9054906101000a900461ffff1661ffff1661176b90919063ffffffff16565b82600201600a6101000a81548161ffff021916908361ffff16021790555061101a8683600101546040518060400160405280600681526020017f7a6f6d6269650000000000000000000000000000000000000000000000000000815250611283565b6110b9565b611049600184600201600a9054906101000a900461ffff1661ffff1661176b90919063ffffffff16565b83600201600a6101000a81548161ffff021916908361ffff16021790555061109160018360020160089054906101000a900461ffff1661ffff1661176b90919063ffffffff16565b8260020160086101000a81548161ffff021916908361ffff1602179055506110b883611823565b5b505050505050565b6110c9611442565b73ffffffffffffffffffffffffffffffffffffffff1660008054906101000a900473ffffffffffffffffffffffffffffffffffffffff1673ffffffffffffffffffffffffffffffffffffffff1614611156576040517f08c379a000000000000000000000000000000000000000000000000000000000815260040161114d90611f44565b60405180910390fd5b600073ffffffffffffffffffffffffffffffffffffffff168173ffffffffffffffffffffffffffffffffffffffff1614156111c6576040517f08c379a00000000000000000000000000000000000000000000000000000000081526004016111bd90611f24565b60405180910390fd5b8073ffffffffffffffffffffffffffffffffffffffff1660008054906101000a900473ffffffffffffffffffffffffffffffffffffffff1673ffffffffffffffffffffffffffffffffffffffff167f8be0079c531659141344cd1fd0a4f28419497f9722a3daafe3b4186f6b6457e060405160405180910390a3806000806101000a81548173ffffffffffffffffffffffffffffffffffffffff021916908373ffffffffffffffffffffffffffffffffffffffff16021790555050565b826006600082815260200190815260200160002060009054906101000a900473ffffffffffffffffffffffffffffffffffffffff1673ffffffffffffffffffffffffffffffffffffffff163373ffffffffffffffffffffffffffffffffffffffff16146112ef57600080fd5b60006005858154811061132b577f4e487b7100000000000000000000000000000000000000000000000000000000600052603260045260246000fd5b9060005260206000209060030201905061134481611856565b61134d57600080fd5b6002548461135b9190612329565b93506000600285836001015461137191906120b6565b61137b9190612146565b90507f8d53323b21b9f304546f6d3e61cde865451064d614aa4912f395b755a9d8cad9846040516020016113af9190611e2b565b6040516020818303038152906040528051906020012014156113f25760636064826113da9190612329565b826113e59190612177565b6113ef91906120b6565b90505b6114316040518060400160405280600681526020017f4e6f4e616d6500000000000000000000000000000000000000000000000000008152508261148f565b61143a82611823565b505050505050565b600033905090565b6000808260405160200161145e9190611e2b565b6040516020818303038152906040528051906020012060001c9050600254816114879190612329565b915050919050565b60056040518060c00160405280848152602001838152602001600163ffffffff168152602001600354426114c391906120b6565b63ffffffff168152602001600061ffff168152602001600061ffff16815250908060018154018082558091505060019003906000526020600020906003020160009091909190915060008201518160000190805190602001906115279291906118cf565b506020820151816001015560408201518160020160006101000a81548163ffffffff021916908363ffffffff16021790555060608201518160020160046101000a81548163ffffffff021916908363ffffffff16021790555060808201518160020160086101000a81548161ffff021916908361ffff16021790555060a082015181600201600a6101000a81548161ffff021916908361ffff16021790555050503360066000600454815260200190815260200160002060006101000a81548173ffffffffffffffffffffffffffffffffffffffff021916908373ffffffffffffffffffffffffffffffffffffffff16021790555061166f6001600760003373ffffffffffffffffffffffffffffffffffffffff1673ffffffffffffffffffffffffffffffffffffffff1681526020019081526020016000205461187d90919063ffffffff16565b600760003373ffffffffffffffffffffffffffffffffffffffff1673ffffffffffffffffffffffffffffffffffffffff168152602001908152602001600020819055507f88f026aacbbecc90c18411df4b1185fd8d9be2470f1962f192bf84a27d0704b760045483836040516116e793929190611f7f565b60405180910390a16004600081548092919061170290612285565b91905055505050565b60006117236001600a5461187d90919063ffffffff16565b600a81905550814233600a5460405160200161174193929190611e42565b6040516020818303038152906040528051906020012060001c6117649190612329565b9050919050565b600080828461177a919061207e565b90508361ffff168161ffff1610156117bb577f4e487b7100000000000000000000000000000000000000000000000000000000600052600160045260246000fd5b8091505092915050565b60008082846117d4919061210c565b90508363ffffffff168163ffffffff161015611819577f4e487b7100000000000000000000000000000000000000000000000000000000600052600160045260246000fd5b8091505092915050565b6003544261183191906120b6565b8160020160046101000a81548163ffffffff021916908363ffffffff16021790555050565b6000428260020160049054906101000a900463ffffffff1663ffffffff1611159050919050565b600080828461188c91906120b6565b9050838110156118c5577f4e487b7100000000000000000000000000000000000000000000000000000000600052600160045260246000fd5b8091505092915050565b8280546118db90612253565b90600052602060002090601f0160209004810192826118fd5760008555611944565b82601f1061191657805160ff1916838001178555611944565b82800160010185558215611944579182015b82811115611943578251825591602001919060010190611928565b5b5090506119519190611955565b5090565b5b8082111561196e576000816000905550600101611956565b5090565b600061198561198084611fee565b611fbd565b90508281526020810184848401111561199d57600080fd5b6119a8848285612211565b509392505050565b6000813590506119bf81612434565b92915050565b6000815190506119d48161244b565b92915050565b600082601f8301126119eb57600080fd5b81356119fb848260208601611972565b91505092915050565b600081359050611a1381612462565b92915050565b600081519050611a2881612462565b92915050565b600060208284031215611a4057600080fd5b6000611a4e848285016119b0565b91505092915050565b6000806000806000806000806000806101408b8d031215611a7757600080fd5b6000611a858d828e016119c5565b9a50506020611a968d828e016119c5565b9950506040611aa78d828e01611a19565b9850506060611ab88d828e01611a19565b9750506080611ac98d828e01611a19565b96505060a0611ada8d828e01611a19565b95505060c0611aeb8d828e01611a19565b94505060e0611afc8d828e01611a19565b935050610100611b0e8d828e01611a19565b925050610120611b208d828e01611a19565b9150509295989b9194979a5092959850565b600060208284031215611b4457600080fd5b600082013567ffffffffffffffff811115611b5e57600080fd5b611b6a848285016119da565b91505092915050565b600060208284031215611b8557600080fd5b6000611b9384828501611a04565b91505092915050565b60008060408385031215611baf57600080fd5b6000611bbd85828601611a04565b925050602083013567ffffffffffffffff811115611bda57600080fd5b611be6858286016119da565b9150509250929050565b60008060408385031215611c0357600080fd5b6000611c1185828601611a04565b9250506020611c2285828601611a04565b9150509250929050565b6000611c388383611de7565b60208301905092915050565b611c4d816121ab565b82525050565b611c64611c5f826121ab565b6122fb565b82525050565b6000611c758261202e565b611c7f8185612051565b9350611c8a8361201e565b8060005b83811015611cbb578151611ca28882611c2c565b9750611cad83612044565b925050600181019050611c8e565b5085935050505092915050565b6000611cd382612039565b611cdd8185612062565b9350611ced818560208601612220565b611cf681612416565b840191505092915050565b6000611d0c82612039565b611d168185612073565b9350611d26818560208601612220565b80840191505092915050565b6000611d3f602683612062565b91507f4f776e61626c653a206e6577206f776e657220697320746865207a65726f206160008301527f64647265737300000000000000000000000000000000000000000000000000006020830152604082019050919050565b6000611da5602083612062565b91507f4f776e61626c653a2063616c6c6572206973206e6f7420746865206f776e65726000830152602082019050919050565b611de1816121c9565b82525050565b611df0816121f7565b82525050565b611dff816121f7565b82525050565b611e16611e11826121f7565b61231f565b82525050565b611e2581612201565b82525050565b6000611e378284611d01565b915081905092915050565b6000611e4e8286611e05565b602082019150611e5e8285611c53565b601482019150611e6e8284611e05565b602082019150819050949350505050565b6000602082019050611e946000830184611c44565b92915050565b60006020820190508181036000830152611eb48184611c6a565b905092915050565b600060c0820190508181036000830152611ed68189611cc8565b9050611ee56020830188611df6565b611ef26040830187611e1c565b611eff6060830186611e1c565b611f0c6080830185611dd8565b611f1960a0830184611dd8565b979650505050505050565b60006020820190508181036000830152611f3d81611d32565b9050919050565b60006020820190508181036000830152611f5d81611d98565b9050919050565b6000602082019050611f796000830184611df6565b92915050565b6000606082019050611f946000830186611df6565b8181036020830152611fa68185611cc8565b9050611fb56040830184611df6565b949350505050565b6000604051905081810181811067ffffffffffffffff82111715611fe457611fe36123e7565b5b8060405250919050565b600067ffffffffffffffff821115612009576120086123e7565b5b601f19601f8301169050602081019050919050565b6000819050602082019050919050565b600081519050919050565b600081519050919050565b6000602082019050919050565b600082825260208201905092915050565b600082825260208201905092915050565b600081905092915050565b6000612089826121c9565b9150612094836121c9565b92508261ffff038211156120ab576120aa61235a565b5b828201905092915050565b60006120c1826121f7565b91506120cc836121f7565b9250827fffffffffffffffffffffffffffffffffffffffffffffffffffffffffffffffff038211156121015761210061235a565b5b828201905092915050565b600061211782612201565b915061212283612201565b92508263ffffffff0382111561213b5761213a61235a565b5b828201905092915050565b6000612151826121f7565b915061215c836121f7565b92508261216c5761216b612389565b5b828204905092915050565b6000612182826121f7565b915061218d836121f7565b9250828210156121a05761219f61235a565b5b828203905092915050565b60006121b6826121d7565b9050919050565b60008115159050919050565b600061ffff82169050919050565b600073ffffffffffffffffffffffffffffffffffffffff82169050919050565b6000819050919050565b600063ffffffff82169050919050565b82818337600083830152505050565b60005b8381101561223e578082015181840152602081019050612223565b8381111561224d576000848401525b50505050565b6000600282049050600182168061226b57607f821691505b6020821081141561227f5761227e6123b8565b5b50919050565b6000612290826121f7565b91507fffffffffffffffffffffffffffffffffffffffffffffffffffffffffffffffff8214156122c3576122c261235a565b5b600182019050919050565b60006122d982612201565b915063ffffffff8214156122f0576122ef61235a565b5b600182019050919050565b60006123068261230d565b9050919050565b600061231882612427565b9050919050565b6000819050919050565b6000612334826121f7565b915061233f836121f7565b92508261234f5761234e612389565b5b828206905092915050565b7f4e487b7100000000000000000000000000000000000000000000000000000000600052601160045260246000fd5b7f4e487b7100000000000000000000000000000000000000000000000000000000600052601260045260246000fd5b7f4e487b7100000000000000000000000000000000000000000000000000000000600052602260045260246000fd5b7f4e487b7100000000000000000000000000000000000000000000000000000000600052604160045260246000fd5b6000601f19601f8301169050919050565b60008160601b9050919050565b61243d816121ab565b811461244857600080fd5b50565b612454816121bd565b811461245f57600080fd5b50565b61246b816121f7565b811461247657600080fd5b5056fea2646970667358221220e906e2cad6777fdd3d62a61789860cd7f2c067f14272413cbd6255b9119c833764736f6c63430008000033",
  "immutableReferences": {},
  "source": "// SPDX-License-Identifier: WaqasWahid\npragma solidity ^0.8.0;\n\n\nimport \"./ZombieHelper.sol\";\nimport \"./SafeMath.sol\";\n\n\ncontract ZombieAttack is ZombieHelper {\n\n  using SafeMath for uint256;\n  // 1. Declare using SafeMath32 for uint32\n  using SafeMath32 for uint32;\n  // 2. Declare using SafeMath16 for uint16\n  using SafeMath16 for uint16;\n\n\n  uint randNonce = 0;\n  uint attackVictoryProbability = 70;\n\n  function randMod(uint _modulus) internal returns(uint) {\n    // Here's one!\n    randNonce = randNonce.add(1);\n    return uint(keccak256(abi.encodePacked(block.timestamp, msg.sender, randNonce))) % _modulus;\n  }\n\n  function attack(uint _zombieId, uint _targetId) external onlyOwnerOf(_zombieId) {\n    Zombie storage myZombie = zombies[_zombieId];\n    Zombie storage enemyZombie = zombies[_targetId];\n    uint rand = randMod(100);\n    if (rand <= attackVictoryProbability) {\n      // Here's 3 more!\n      myZombie.winCount = myZombie.winCount.add(1);\n      myZombie.level = myZombie.level.add(1);\n      enemyZombie.lossCount = enemyZombie.lossCount.add(1);\n      feedAndMultiply(_zombieId, enemyZombie.dna, \"zombie\");\n    } else {\n      // ...annnnd another 2!\n      myZombie.lossCount = myZombie.lossCount.add(1);\n      enemyZombie.winCount = enemyZombie.winCount.add(1);\n      _triggerCooldown(myZombie);\n    }\n  }\n}",
  "sourcePath": "/home/waqas/Desktop/cryptozombies/contracts/ZombieAttack.sol",
  "compiler": {
    "name": "solc",
    "version": "0.8.0+commit.c7dfd78e.Emscripten.clang"
  },
  "schemaVersion": "3.4.1",
  "updatedAt": "2021-09-18T15:59:07.290Z",
  "networkType": "ethereum",
  "devdoc": {
    "kind": "dev",
    "methods": {
      "owner()": {
        "details": "Returns the address of the current owner."
      },
      "renounceOwnership()": {
        "details": "Leaves the contract without owner. It will not be possible to call `onlyOwner` functions anymore. Can only be called by the current owner. NOTE: Renouncing ownership will leave the contract without an owner, thereby removing any functionality that is only available to the owner."
      },
      "transferOwnership(address)": {
        "details": "Transfers ownership of the contract to a new account (`newOwner`). Can only be called by the current owner."
      }
    },
    "version": 1
  },
  "userdoc": {
    "kind": "user",
    "methods": {},
    "version": 1
  }
}