{
  "contractName": "ZombieOwnership",
  "abi": [
    {
      "anonymous": false,
      "inputs": [
        {
          "indexed": true,
          "internalType": "address",
          "name": "_owner",
          "type": "address"
        },
        {
          "indexed": true,
          "internalType": "address",
          "name": "_approved",
          "type": "address"
        },
        {
          "indexed": true,
          "internalType": "uint256",
          "name": "_tokenId",
          "type": "uint256"
        }
      ],
      "name": "Approval",
      "type": "event"
    },
    {
      "anonymous": false,
      "inputs": [
        {
          "indexed": false,
          "internalType": "uint256",
          "name": "zombieId",
          "type": "uint256"
        },
        {
          "indexed": false,
          "internalType": "string",
          "name": "name",
          "type": "string"
        },
        {
          "indexed": false,
          "internalType": "uint256",
          "name": "dna",
          "type": "uint256"
        }
      ],
      "name": "NewZombie",
      "type": "event"
    },
    {
      "anonymous": false,
      "inputs": [
        {
          "indexed": true,
          "internalType": "address",
          "name": "previousOwner",
          "type": "address"
        },
        {
          "indexed": true,
          "internalType": "address",
          "name": "newOwner",
          "type": "address"
        }
      ],
      "name": "OwnershipTransferred",
      "type": "event"
    },
    {
      "anonymous": false,
      "inputs": [
        {
          "indexed": true,
          "internalType": "address",
          "name": "_from",
          "type": "address"
        },
        {
          "indexed": true,
          "internalType": "address",
          "name": "_to",
          "type": "address"
        },
        {
          "indexed": true,
          "internalType": "uint256",
          "name": "_tokenId",
          "type": "uint256"
        }
      ],
      "name": "Transfer",
      "type": "event"
    },
    {
      "inputs": [
        {
          "internalType": "uint256",
          "name": "_zombieId",
          "type": "uint256"
        },
        {
          "internalType": "uint256",
          "name": "_targetId",
          "type": "uint256"
        }
      ],
      "name": "attack",
      "outputs": [],
      "stateMutability": "nonpayable",
      "type": "function"
    },
    {
      "inputs": [
        {
          "internalType": "uint256",
          "name": "_zombieId",
          "type": "uint256"
        },
        {
          "internalType": "uint256",
          "name": "_newDna",
          "type": "uint256"
        }
      ],
      "name": "changeDna",
      "outputs": [],
      "stateMutability": "nonpayable",
      "type": "function"
    },
    {
      "inputs": [
        {
          "internalType": "uint256",
          "name": "_zombieId",
          "type": "uint256"
        },
        {
          "internalType": "string",
          "name": "_newName",
          "type": "string"
        }
      ],
      "name": "changeName",
      "outputs": [],
      "stateMutability": "nonpayable",
      "type": "function"
    },
    {
      "inputs": [
        {
          "internalType": "string",
          "name": "_name",
          "type": "string"
        }
      ],
      "name": "createRandomZombie",
      "outputs": [],
      "stateMutability": "nonpayable",
      "type": "function"
    },
    {
      "inputs": [
        {
          "internalType": "uint256",
          "name": "_zombieId",
          "type": "uint256"
        },
        {
          "internalType": "uint256",
          "name": "_kittyId",
          "type": "uint256"
        }
      ],
      "name": "feedOnKitty",
      "outputs": [],
      "stateMutability": "nonpayable",
      "type": "function"
    },
    {
      "inputs": [
        {
          "internalType": "address",
          "name": "_owner",
          "type": "address"
        }
      ],
      "name": "getZombiesByOwner",
      "outputs": [
        {
          "internalType": "uint256[]",
          "name": "",
          "type": "uint256[]"
        }
      ],
      "stateMutability": "view",
      "type": "function",
      "constant": true
    },
    {
      "inputs": [
        {
          "internalType": "uint256",
          "name": "_zombieId",
          "type": "uint256"
        }
      ],
      "name": "levelUp",
      "outputs": [],
      "stateMutability": "payable",
      "type": "function",
      "payable": true
    },
    {
      "inputs": [],
      "name": "owner",
      "outputs": [
        {
          "internalType": "address",
          "name": "",
          "type": "address"
        }
      ],
      "stateMutability": "view",
      "type": "function",
      "constant": true
    },
    {
      "inputs": [],
      "name": "renounceOwnership",
      "outputs": [],
      "stateMutability": "nonpayable",
      "type": "function"
    },
    {
      "inputs": [
        {
          "internalType": "address",
          "name": "_address",
          "type": "address"
        }
      ],
      "name": "setKittyContractAddress",
      "outputs": [],
      "stateMutability": "nonpayable",
      "type": "function"
    },
    {
      "inputs": [
        {
          "internalType": "uint256",
          "name": "_fee",
          "type": "uint256"
        }
      ],
      "name": "setLevelUpFee",
      "outputs": [],
      "stateMutability": "nonpayable",
      "type": "function"
    },
    {
      "inputs": [
        {
          "internalType": "address",
          "name": "newOwner",
          "type": "address"
        }
      ],
      "name": "transferOwnership",
      "outputs": [],
      "stateMutability": "nonpayable",
      "type": "function"
    },
    {
      "inputs": [
        {
          "internalType": "uint256",
          "name": "",
          "type": "uint256"
        }
      ],
      "name": "zombieToOwner",
      "outputs": [
        {
          "internalType": "address",
          "name": "",
          "type": "address"
        }
      ],
      "stateMutability": "view",
      "type": "function",
      "constant": true
    },
    {
      "inputs": [
        {
          "internalType": "uint256",
          "name": "",
          "type": "uint256"
        }
      ],
      "name": "zombies",
      "outputs": [
        {
          "internalType": "string",
          "name": "name",
          "type": "string"
        },
        {
          "internalType": "uint256",
          "name": "dna",
          "type": "uint256"
        },
        {
          "internalType": "uint32",
          "name": "level",
          "type": "uint32"
        },
        {
          "internalType": "uint32",
          "name": "readyTime",
          "type": "uint32"
        },
        {
          "internalType": "uint16",
          "name": "winCount",
          "type": "uint16"
        },
        {
          "internalType": "uint16",
          "name": "lossCount",
          "type": "uint16"
        }
      ],
      "stateMutability": "view",
      "type": "function",
      "constant": true
    },
    {
      "inputs": [
        {
          "internalType": "address",
          "name": "_owner",
          "type": "address"
        }
      ],
      "name": "balanceOf",
      "outputs": [
        {
          "internalType": "uint256",
          "name": "",
          "type": "uint256"
        }
      ],
      "stateMutability": "view",
      "type": "function",
      "constant": true
    },
    {
      "inputs": [
        {
          "internalType": "uint256",
          "name": "_tokenId",
          "type": "uint256"
        }
      ],
      "name": "ownerOf",
      "outputs": [
        {
          "internalType": "address",
          "name": "",
          "type": "address"
        }
      ],
      "stateMutability": "view",
      "type": "function",
      "constant": true
    },
    {
      "inputs": [
        {
          "internalType": "address",
          "name": "_to",
          "type": "address"
        },
        {
          "internalType": "uint256",
          "name": "_tokenId",
          "type": "uint256"
        }
      ],
      "name": "transfer",
      "outputs": [],
      "stateMutability": "nonpayable",
      "type": "function"
    },
    {
      "inputs": [
        {
          "internalType": "address",
          "name": "_from",
          "type": "address"
        },
        {
          "internalType": "address",
          "name": "_to",
          "type": "address"
        },
        {
          "internalType": "uint256",
          "name": "_tokenId",
          "type": "uint256"
        }
      ],
      "name": "transferFrom",
      "outputs": [],
      "stateMutability": "payable",
      "type": "function",
      "payable": true
    },
    {
      "inputs": [
        {
          "internalType": "address",
          "name": "_to",
          "type": "address"
        },
        {
          "internalType": "uint256",
          "name": "_tokenId",
          "type": "uint256"
        }
      ],
      "name": "approve",
      "outputs": [],
      "stateMutability": "payable",
      "type": "function",
      "payable": true
    },
    {
      "inputs": [
        {
          "internalType": "uint256",
          "name": "_tokenId",
          "type": "uint256"
        }
      ],
      "name": "takeOwnership",
      "outputs": [],
      "stateMutability": "nonpayable",
      "type": "function"
    }
  ],
  "bytecode": "0x60806040526010600155600154600a6200001a919062000165565b60025562015180600355600060045566038d7ea4c680006009556000600a556046600b553480156200004b57600080fd5b5060006200005e6200010260201b60201c565b9050806000806101000a81548173ffffffffffffffffffffffffffffffffffffffff021916908373ffffffffffffffffffffffffffffffffffffffff1602179055508073ffffffffffffffffffffffffffffffffffffffff16600073ffffffffffffffffffffffffffffffffffffffff167f8be0079c531659141344cd1fd0a4f28419497f9722a3daafe3b4186f6b6457e060405160405180910390a350620002e8565b600033905090565b6000808291508390505b60018511156200015c57808604811115620001345762000133620002ac565b5b6001851615620001445780820291505b80810290506200015485620002db565b945062000114565b94509492505050565b60006200017282620002a2565b91506200017f83620002a2565b9250620001ae7fffffffffffffffffffffffffffffffffffffffffffffffffffffffffffffffff8484620001b6565b905092915050565b600082620001c857600190506200029b565b81620001d857600090506200029b565b8160018114620001f15760028114620001fc5762000232565b60019150506200029b565b60ff841115620002115762000210620002ac565b5b8360020a9150848211156200022b576200022a620002ac565b5b506200029b565b5060208310610133831016604e8410600b84101617156200026c5782820a905083811115620002665762000265620002ac565b5b6200029b565b6200027b84848460016200010a565b92509050818404811115620002955762000294620002ac565b5b81810290505b9392505050565b6000819050919050565b7f4e487b7100000000000000000000000000000000000000000000000000000000600052601160045260246000fd5b60008160011c9050919050565b612c3680620002f86000396000f3fe60806040526004361061011f5760003560e01c806370a08231116100a0578063b2e6ceeb11610064578063b2e6ceeb146103bd578063c39cbef1146103e6578063ccf670f81461040f578063e1fa763814610438578063f2fde38b146104615761011f565b806370a08231146102ec578063715018a6146103295780637bff0a01146103405780638da5cb5b14610369578063a9059cbb146103945761011f565b80634412e104116100e75780634412e104146101e3578063528b7b8f146102205780635f4623f11461025d5780635faf2880146102865780636352211e146102af5761011f565b8063095ea7b3146101245780630ce90ec21461014057806317a7f4cc1461015c5780632052465e1461018557806323b872dd146101c7575b600080fd5b61013e600480360381019061013991906121a2565b61048a565b005b61015a600480360381019061015591906122fa565b6105a8565b005b34801561016857600080fd5b50610183600480360381019061017e9190612377565b610643565b005b34801561019157600080fd5b506101ac60048036038101906101a791906122fa565b610770565b6040516101be96959493929190612643565b60405180910390f35b6101e160048036038101906101dc9190612153565b610880565b005b3480156101ef57600080fd5b5061020a6004803603810190610205919061212a565b610964565b6040516102179190612621565b60405180910390f35b34801561022c57600080fd5b50610247600480360381019061024291906122fa565b610b03565b6040516102549190612606565b60405180910390f35b34801561026957600080fd5b50610284600480360381019061027f919061212a565b610b36565b005b34801561029257600080fd5b506102ad60048036038101906102a89190612377565b610c0f565b005b3480156102bb57600080fd5b506102d660048036038101906102d191906122fa565b610d43565b6040516102e39190612606565b60405180910390f35b3480156102f857600080fd5b50610313600480360381019061030e919061212a565b610d80565b60405161032091906126eb565b60405180910390f35b34801561033557600080fd5b5061033e610dc9565b005b34801561034c57600080fd5b50610367600480360381019061036291906122b9565b610f1c565b005b34801561037557600080fd5b5061037e610f9d565b60405161038b9190612606565b60405180910390f35b3480156103a057600080fd5b506103bb60048036038101906103b691906121a2565b610fc6565b005b3480156103c957600080fd5b506103e460048036038101906103df91906122fa565b611042565b005b3480156103f257600080fd5b5061040d60048036038101906104089190612323565b6110c9565b005b34801561041b57600080fd5b50610436600480360381019061043191906122fa565b61120d565b005b34801561044457600080fd5b5061045f600480360381019061045a9190612377565b6112ac565b005b34801561046d57600080fd5b506104886004803603810190610483919061212a565b611592565b005b806006600082815260200190815260200160002060009054906101000a900473ffffffffffffffffffffffffffffffffffffffff1673ffffffffffffffffffffffffffffffffffffffff163373ffffffffffffffffffffffffffffffffffffffff16146104f657600080fd5b82600c600084815260200190815260200160002060006101000a81548173ffffffffffffffffffffffffffffffffffffffff021916908373ffffffffffffffffffffffffffffffffffffffff160217905550818373ffffffffffffffffffffffffffffffffffffffff163373ffffffffffffffffffffffffffffffffffffffff167f8c5be1e5ebec7d5bd14f71427d1e84f3dd0314c0f7b2291e5b200ac8c7c3b92560405160405180910390a4505050565b60095434146105b657600080fd5b600581815481106105f0577f4e487b7100000000000000000000000000000000000000000000000000000000600052603260045260246000fd5b9060005260206000209060030201600201600081819054906101000a900463ffffffff168092919061062190612a55565b91906101000a81548163ffffffff021916908363ffffffff1602179055505050565b6000600860009054906101000a900473ffffffffffffffffffffffffffffffffffffffff1673ffffffffffffffffffffffffffffffffffffffff1663e98b7f4d836040518263ffffffff1660e01b81526004016106a091906126eb565b6101406040518083038186803b1580156106b957600080fd5b505afa1580156106cd573d6000803e3d6000fd5b505050506040513d601f19601f820116820180604052508101906106f191906121de565b9091929394959697985090919293949596975090919293949596509091929394955090919293945090919293509091925090915090508091505061076b83826040518060400160405280600581526020017f6b69747479000000000000000000000000000000000000000000000000000000815250611754565b505050565b6005818154811061078057600080fd5b90600052602060002090600302016000915090508060000180546107a3906129da565b80601f01602080910402602001604051908101604052809291908181526020018280546107cf906129da565b801561081c5780601f106107f15761010080835404028352916020019161081c565b820191906000526020600020905b8154815290600101906020018083116107ff57829003601f168201915b5050505050908060010154908060020160009054906101000a900463ffffffff16908060020160049054906101000a900463ffffffff16908060020160089054906101000a900461ffff169080600201600a9054906101000a900461ffff16905086565b3373ffffffffffffffffffffffffffffffffffffffff166006600083815260200190815260200160002060009054906101000a900473ffffffffffffffffffffffffffffffffffffffff1673ffffffffffffffffffffffffffffffffffffffff16148061094b57503373ffffffffffffffffffffffffffffffffffffffff16600c600083815260200190815260200160002060009054906101000a900473ffffffffffffffffffffffffffffffffffffffff1673ffffffffffffffffffffffffffffffffffffffff16145b61095457600080fd5b61095f838383611913565b505050565b60606000600760008473ffffffffffffffffffffffffffffffffffffffff1673ffffffffffffffffffffffffffffffffffffffff1681526020019081526020016000205467ffffffffffffffff8111156109e7577f4e487b7100000000000000000000000000000000000000000000000000000000600052604160045260246000fd5b604051908082528060200260200182016040528015610a155781602001602082028036833780820191505090505b5090506000805b600580549050811015610af8578473ffffffffffffffffffffffffffffffffffffffff166006600083815260200190815260200160002060009054906101000a900473ffffffffffffffffffffffffffffffffffffffff1673ffffffffffffffffffffffffffffffffffffffff161415610ae55780838381518110610aca577f4e487b7100000000000000000000000000000000000000000000000000000000600052603260045260246000fd5b6020026020010181815250508180610ae190612a0c565b9250505b8080610af090612a0c565b915050610a1c565b508192505050919050565b60066020528060005260406000206000915054906101000a900473ffffffffffffffffffffffffffffffffffffffff1681565b610b3e611af1565b73ffffffffffffffffffffffffffffffffffffffff1660008054906101000a900473ffffffffffffffffffffffffffffffffffffffff1673ffffffffffffffffffffffffffffffffffffffff1614610bcb576040517f08c379a0000000000000000000000000000000000000000000000000000000008152600401610bc2906126cb565b60405180910390fd5b80600860006101000a81548173ffffffffffffffffffffffffffffffffffffffff021916908373ffffffffffffffffffffffffffffffffffffffff16021790555050565b6014828160058281548110610c4d577f4e487b7100000000000000000000000000000000000000000000000000000000600052603260045260246000fd5b906000526020600020906003020160020160009054906101000a900463ffffffff1663ffffffff161015610c8057600080fd5b836006600082815260200190815260200160002060009054906101000a900473ffffffffffffffffffffffffffffffffffffffff1673ffffffffffffffffffffffffffffffffffffffff163373ffffffffffffffffffffffffffffffffffffffff1614610cec57600080fd5b8360058681548110610d27577f4e487b7100000000000000000000000000000000000000000000000000000000600052603260045260246000fd5b9060005260206000209060030201600101819055505050505050565b60006006600083815260200190815260200160002060009054906101000a900473ffffffffffffffffffffffffffffffffffffffff169050919050565b6000600760008373ffffffffffffffffffffffffffffffffffffffff1673ffffffffffffffffffffffffffffffffffffffff168152602001908152602001600020549050919050565b610dd1611af1565b73ffffffffffffffffffffffffffffffffffffffff1660008054906101000a900473ffffffffffffffffffffffffffffffffffffffff1673ffffffffffffffffffffffffffffffffffffffff1614610e5e576040517f08c379a0000000000000000000000000000000000000000000000000000000008152600401610e55906126cb565b60405180910390fd5b600073ffffffffffffffffffffffffffffffffffffffff1660008054906101000a900473ffffffffffffffffffffffffffffffffffffffff1673ffffffffffffffffffffffffffffffffffffffff167f8be0079c531659141344cd1fd0a4f28419497f9722a3daafe3b4186f6b6457e060405160405180910390a360008060006101000a81548173ffffffffffffffffffffffffffffffffffffffff021916908373ffffffffffffffffffffffffffffffffffffffff160217905550565b6000600760003373ffffffffffffffffffffffffffffffffffffffff1673ffffffffffffffffffffffffffffffffffffffff1681526020019081526020016000205414610f6857600080fd5b6000610f7382611af9565b9050606481610f829190612ab0565b81610f8d91906128fe565b9050610f998282611b3e565b5050565b60008060009054906101000a900473ffffffffffffffffffffffffffffffffffffffff16905090565b806006600082815260200190815260200160002060009054906101000a900473ffffffffffffffffffffffffffffffffffffffff1673ffffffffffffffffffffffffffffffffffffffff163373ffffffffffffffffffffffffffffffffffffffff161461103257600080fd5b61103d338484611913565b505050565b3373ffffffffffffffffffffffffffffffffffffffff16600c600083815260200190815260200160002060009054906101000a900473ffffffffffffffffffffffffffffffffffffffff1673ffffffffffffffffffffffffffffffffffffffff16146110ad57600080fd5b60006110b882610d43565b90506110c5813384611913565b5050565b6002828160058281548110611107577f4e487b7100000000000000000000000000000000000000000000000000000000600052603260045260246000fd5b906000526020600020906003020160020160009054906101000a900463ffffffff1663ffffffff16101561113a57600080fd5b836006600082815260200190815260200160002060009054906101000a900473ffffffffffffffffffffffffffffffffffffffff1673ffffffffffffffffffffffffffffffffffffffff163373ffffffffffffffffffffffffffffffffffffffff16146111a657600080fd5b83600586815481106111e1577f4e487b7100000000000000000000000000000000000000000000000000000000600052603260045260246000fd5b90600052602060002090600302016000019080519060200190611205929190611fcb565b505050505050565b611215611af1565b73ffffffffffffffffffffffffffffffffffffffff1660008054906101000a900473ffffffffffffffffffffffffffffffffffffffff1673ffffffffffffffffffffffffffffffffffffffff16146112a2576040517f08c379a0000000000000000000000000000000000000000000000000000000008152600401611299906126cb565b60405180910390fd5b8060098190555050565b816006600082815260200190815260200160002060009054906101000a900473ffffffffffffffffffffffffffffffffffffffff1673ffffffffffffffffffffffffffffffffffffffff163373ffffffffffffffffffffffffffffffffffffffff161461131857600080fd5b600060058481548110611354577f4e487b7100000000000000000000000000000000000000000000000000000000600052603260045260246000fd5b906000526020600020906003020190506000600584815481106113a0577f4e487b7100000000000000000000000000000000000000000000000000000000600052603260045260246000fd5b9060005260206000209060030201905060006113bc6064611dba565b9050600b5481116114f0576113f160018460020160089054906101000a900461ffff1661ffff16611e1a90919063ffffffff16565b8360020160086101000a81548161ffff021916908361ffff16021790555061143d60018460020160009054906101000a900463ffffffff1663ffffffff16611e7490919063ffffffff16565b8360020160006101000a81548163ffffffff021916908363ffffffff160217905550611489600183600201600a9054906101000a900461ffff1661ffff16611e1a90919063ffffffff16565b82600201600a6101000a81548161ffff021916908361ffff1602179055506114eb8683600101546040518060400160405280600681526020017f7a6f6d6269650000000000000000000000000000000000000000000000000000815250611754565b61158a565b61151a600184600201600a9054906101000a900461ffff1661ffff16611e1a90919063ffffffff16565b83600201600a6101000a81548161ffff021916908361ffff16021790555061156260018360020160089054906101000a900461ffff1661ffff16611e1a90919063ffffffff16565b8260020160086101000a81548161ffff021916908361ffff16021790555061158983611ed2565b5b505050505050565b61159a611af1565b73ffffffffffffffffffffffffffffffffffffffff1660008054906101000a900473ffffffffffffffffffffffffffffffffffffffff1673ffffffffffffffffffffffffffffffffffffffff1614611627576040517f08c379a000000000000000000000000000000000000000000000000000000000815260040161161e906126cb565b60405180910390fd5b600073ffffffffffffffffffffffffffffffffffffffff168173ffffffffffffffffffffffffffffffffffffffff161415611697576040517f08c379a000000000000000000000000000000000000000000000000000000000815260040161168e906126ab565b60405180910390fd5b8073ffffffffffffffffffffffffffffffffffffffff1660008054906101000a900473ffffffffffffffffffffffffffffffffffffffff1673ffffffffffffffffffffffffffffffffffffffff167f8be0079c531659141344cd1fd0a4f28419497f9722a3daafe3b4186f6b6457e060405160405180910390a3806000806101000a81548173ffffffffffffffffffffffffffffffffffffffff021916908373ffffffffffffffffffffffffffffffffffffffff16021790555050565b826006600082815260200190815260200160002060009054906101000a900473ffffffffffffffffffffffffffffffffffffffff1673ffffffffffffffffffffffffffffffffffffffff163373ffffffffffffffffffffffffffffffffffffffff16146117c057600080fd5b6000600585815481106117fc577f4e487b7100000000000000000000000000000000000000000000000000000000600052603260045260246000fd5b9060005260206000209060030201905061181581611f05565b61181e57600080fd5b6002548461182c9190612ab0565b935060006002858360010154611842919061283d565b61184c91906128cd565b90507f8d53323b21b9f304546f6d3e61cde865451064d614aa4912f395b755a9d8cad98460405160200161188091906125b2565b6040516020818303038152906040528051906020012014156118c35760636064826118ab9190612ab0565b826118b691906128fe565b6118c0919061283d565b90505b6119026040518060400160405280600681526020017f4e6f4e616d65000000000000000000000000000000000000000000000000000081525082611b3e565b61190b82611ed2565b505050505050565b6119666001600760008573ffffffffffffffffffffffffffffffffffffffff1673ffffffffffffffffffffffffffffffffffffffff16815260200190815260200160002054611f2c90919063ffffffff16565b600760008473ffffffffffffffffffffffffffffffffffffffff1673ffffffffffffffffffffffffffffffffffffffff168152602001908152602001600020819055506119fc6001600760003373ffffffffffffffffffffffffffffffffffffffff1673ffffffffffffffffffffffffffffffffffffffff16815260200190815260200160002054611f7e90919063ffffffff16565b600760003373ffffffffffffffffffffffffffffffffffffffff1673ffffffffffffffffffffffffffffffffffffffff16815260200190815260200160002081905550816006600083815260200190815260200160002060006101000a81548173ffffffffffffffffffffffffffffffffffffffff021916908373ffffffffffffffffffffffffffffffffffffffff160217905550808273ffffffffffffffffffffffffffffffffffffffff168473ffffffffffffffffffffffffffffffffffffffff167fddf252ad1be2c89b69c2b068fc378daa952ba7f163c4a11628f55a4df523b3ef60405160405180910390a4505050565b600033905090565b60008082604051602001611b0d91906125b2565b6040516020818303038152906040528051906020012060001c905060025481611b369190612ab0565b915050919050565b60056040518060c00160405280848152602001838152602001600163ffffffff16815260200160035442611b72919061283d565b63ffffffff168152602001600061ffff168152602001600061ffff1681525090806001815401808255809150506001900390600052602060002090600302016000909190919091506000820151816000019080519060200190611bd6929190611fcb565b506020820151816001015560408201518160020160006101000a81548163ffffffff021916908363ffffffff16021790555060608201518160020160046101000a81548163ffffffff021916908363ffffffff16021790555060808201518160020160086101000a81548161ffff021916908361ffff16021790555060a082015181600201600a6101000a81548161ffff021916908361ffff16021790555050503360066000600454815260200190815260200160002060006101000a81548173ffffffffffffffffffffffffffffffffffffffff021916908373ffffffffffffffffffffffffffffffffffffffff160217905550611d1e6001600760003373ffffffffffffffffffffffffffffffffffffffff1673ffffffffffffffffffffffffffffffffffffffff16815260200190815260200160002054611f2c90919063ffffffff16565b600760003373ffffffffffffffffffffffffffffffffffffffff1673ffffffffffffffffffffffffffffffffffffffff168152602001908152602001600020819055507f88f026aacbbecc90c18411df4b1185fd8d9be2470f1962f192bf84a27d0704b76004548383604051611d9693929190612706565b60405180910390a160046000815480929190611db190612a0c565b91905055505050565b6000611dd26001600a54611f2c90919063ffffffff16565b600a81905550814233600a54604051602001611df0939291906125c9565b6040516020818303038152906040528051906020012060001c611e139190612ab0565b9050919050565b6000808284611e299190612805565b90508361ffff168161ffff161015611e6a577f4e487b7100000000000000000000000000000000000000000000000000000000600052600160045260246000fd5b8091505092915050565b6000808284611e839190612893565b90508363ffffffff168163ffffffff161015611ec8577f4e487b7100000000000000000000000000000000000000000000000000000000600052600160045260246000fd5b8091505092915050565b60035442611ee0919061283d565b8160020160046101000a81548163ffffffff021916908363ffffffff16021790555050565b6000428260020160049054906101000a900463ffffffff1663ffffffff1611159050919050565b6000808284611f3b919061283d565b905083811015611f74577f4e487b7100000000000000000000000000000000000000000000000000000000600052600160045260246000fd5b8091505092915050565b600082821115611fb7577f4e487b7100000000000000000000000000000000000000000000000000000000600052600160045260246000fd5b8183611fc391906128fe565b905092915050565b828054611fd7906129da565b90600052602060002090601f016020900481019282611ff95760008555612040565b82601f1061201257805160ff1916838001178555612040565b82800160010185558215612040579182015b8281111561203f578251825591602001919060010190612024565b5b50905061204d9190612051565b5090565b5b8082111561206a576000816000905550600101612052565b5090565b600061208161207c84612775565b612744565b90508281526020810184848401111561209957600080fd5b6120a4848285612998565b509392505050565b6000813590506120bb81612bbb565b92915050565b6000815190506120d081612bd2565b92915050565b600082601f8301126120e757600080fd5b81356120f784826020860161206e565b91505092915050565b60008135905061210f81612be9565b92915050565b60008151905061212481612be9565b92915050565b60006020828403121561213c57600080fd5b600061214a848285016120ac565b91505092915050565b60008060006060848603121561216857600080fd5b6000612176868287016120ac565b9350506020612187868287016120ac565b925050604061219886828701612100565b9150509250925092565b600080604083850312156121b557600080fd5b60006121c3858286016120ac565b92505060206121d485828601612100565b9150509250929050565b6000806000806000806000806000806101408b8d0312156121fe57600080fd5b600061220c8d828e016120c1565b9a5050602061221d8d828e016120c1565b995050604061222e8d828e01612115565b985050606061223f8d828e01612115565b97505060806122508d828e01612115565b96505060a06122618d828e01612115565b95505060c06122728d828e01612115565b94505060e06122838d828e01612115565b9350506101006122958d828e01612115565b9250506101206122a78d828e01612115565b9150509295989b9194979a5092959850565b6000602082840312156122cb57600080fd5b600082013567ffffffffffffffff8111156122e557600080fd5b6122f1848285016120d6565b91505092915050565b60006020828403121561230c57600080fd5b600061231a84828501612100565b91505092915050565b6000806040838503121561233657600080fd5b600061234485828601612100565b925050602083013567ffffffffffffffff81111561236157600080fd5b61236d858286016120d6565b9150509250929050565b6000806040838503121561238a57600080fd5b600061239885828601612100565b92505060206123a985828601612100565b9150509250929050565b60006123bf838361256e565b60208301905092915050565b6123d481612932565b82525050565b6123eb6123e682612932565b612a82565b82525050565b60006123fc826127b5565b61240681856127d8565b9350612411836127a5565b8060005b8381101561244257815161242988826123b3565b9750612434836127cb565b925050600181019050612415565b5085935050505092915050565b600061245a826127c0565b61246481856127e9565b93506124748185602086016129a7565b61247d81612b9d565b840191505092915050565b6000612493826127c0565b61249d81856127fa565b93506124ad8185602086016129a7565b80840191505092915050565b60006124c66026836127e9565b91507f4f776e61626c653a206e6577206f776e657220697320746865207a65726f206160008301527f64647265737300000000000000000000000000000000000000000000000000006020830152604082019050919050565b600061252c6020836127e9565b91507f4f776e61626c653a2063616c6c6572206973206e6f7420746865206f776e65726000830152602082019050919050565b61256881612950565b82525050565b6125778161297e565b82525050565b6125868161297e565b82525050565b61259d6125988261297e565b612aa6565b82525050565b6125ac81612988565b82525050565b60006125be8284612488565b915081905092915050565b60006125d5828661258c565b6020820191506125e582856123da565b6014820191506125f5828461258c565b602082019150819050949350505050565b600060208201905061261b60008301846123cb565b92915050565b6000602082019050818103600083015261263b81846123f1565b905092915050565b600060c082019050818103600083015261265d818961244f565b905061266c602083018861257d565b61267960408301876125a3565b61268660608301866125a3565b612693608083018561255f565b6126a060a083018461255f565b979650505050505050565b600060208201905081810360008301526126c4816124b9565b9050919050565b600060208201905081810360008301526126e48161251f565b9050919050565b6000602082019050612700600083018461257d565b92915050565b600060608201905061271b600083018661257d565b818103602083015261272d818561244f565b905061273c604083018461257d565b949350505050565b6000604051905081810181811067ffffffffffffffff8211171561276b5761276a612b6e565b5b8060405250919050565b600067ffffffffffffffff8211156127905761278f612b6e565b5b601f19601f8301169050602081019050919050565b6000819050602082019050919050565b600081519050919050565b600081519050919050565b6000602082019050919050565b600082825260208201905092915050565b600082825260208201905092915050565b600081905092915050565b600061281082612950565b915061281b83612950565b92508261ffff0382111561283257612831612ae1565b5b828201905092915050565b60006128488261297e565b91506128538361297e565b9250827fffffffffffffffffffffffffffffffffffffffffffffffffffffffffffffffff0382111561288857612887612ae1565b5b828201905092915050565b600061289e82612988565b91506128a983612988565b92508263ffffffff038211156128c2576128c1612ae1565b5b828201905092915050565b60006128d88261297e565b91506128e38361297e565b9250826128f3576128f2612b10565b5b828204905092915050565b60006129098261297e565b91506129148361297e565b92508282101561292757612926612ae1565b5b828203905092915050565b600061293d8261295e565b9050919050565b60008115159050919050565b600061ffff82169050919050565b600073ffffffffffffffffffffffffffffffffffffffff82169050919050565b6000819050919050565b600063ffffffff82169050919050565b82818337600083830152505050565b60005b838110156129c55780820151818401526020810190506129aa565b838111156129d4576000848401525b50505050565b600060028204905060018216806129f257607f821691505b60208210811415612a0657612a05612b3f565b5b50919050565b6000612a178261297e565b91507fffffffffffffffffffffffffffffffffffffffffffffffffffffffffffffffff821415612a4a57612a49612ae1565b5b600182019050919050565b6000612a6082612988565b915063ffffffff821415612a7757612a76612ae1565b5b600182019050919050565b6000612a8d82612a94565b9050919050565b6000612a9f82612bae565b9050919050565b6000819050919050565b6000612abb8261297e565b9150612ac68361297e565b925082612ad657612ad5612b10565b5b828206905092915050565b7f4e487b7100000000000000000000000000000000000000000000000000000000600052601160045260246000fd5b7f4e487b7100000000000000000000000000000000000000000000000000000000600052601260045260246000fd5b7f4e487b7100000000000000000000000000000000000000000000000000000000600052602260045260246000fd5b7f4e487b7100000000000000000000000000000000000000000000000000000000600052604160045260246000fd5b6000601f19601f8301169050919050565b60008160601b9050919050565b612bc481612932565b8114612bcf57600080fd5b50565b612bdb81612944565b8114612be657600080fd5b50565b612bf28161297e565b8114612bfd57600080fd5b5056fea2646970667358221220b926a0f0b7820e3344dcff708f6a6f83340ae5c5c10c13d2f60faf52c1c1103064736f6c63430008000033",
  "immutableReferences": {},
  "source": "// SPDX-License-Identifier: WaqasWahid\npragma solidity ^0.8.0;\n\n// import \"./erc721.sol\";\nimport \"./ZombieAttack.sol\";\nimport \"./IERC721.sol\";\n\n\ncontract ZombieOwnership is ZombieAttack, IERC721 {\n\n  using SafeMath for uint256;\n\n  mapping (uint => address) zombieApprovals;\n\n  function balanceOf(address _owner) public view override returns (uint256) {\n    return ownerZombieCount[_owner];\n  }\n\n  function ownerOf(uint256 _tokenId) public view virtual override returns (address) {\n    return zombieToOwner[_tokenId];\n  }\n\n\n  function _transfer(address _from, address _to, uint256 _tokenId) internal {\n    ownerZombieCount[_to] = ownerZombieCount[_to].add(1);\n    ownerZombieCount[msg.sender] = ownerZombieCount[msg.sender].sub(1);\n    zombieToOwner[_tokenId] = _to;\n    emit Transfer(_from, _to, _tokenId);\n  }\n\n  function transfer(address _to, uint256 _tokenId) public onlyOwnerOf(_tokenId) {\n    _transfer(msg.sender, _to, _tokenId);\n  }\n\n  function transferFrom(address _from, address _to, uint256 _tokenId) external override payable {\n      require (zombieToOwner[_tokenId] == msg.sender || zombieApprovals[_tokenId] == msg.sender);\n      _transfer(_from, _to, _tokenId);\n    }\n\n  function approve(address _to, uint256 _tokenId) external payable override onlyOwnerOf(_tokenId) {\n    zombieApprovals[_tokenId] = _to;\n    emit Approval(msg.sender, _to, _tokenId);\n  }\n\n  function takeOwnership(uint256 _tokenId) public {\n    require(zombieApprovals[_tokenId] == msg.sender);\n    address owner = ownerOf(_tokenId);\n    _transfer(owner, msg.sender, _tokenId);\n  }\n}",
  "sourcePath": "/home/waqas/Desktop/cryptozombies/contracts/ZombieOwnership.sol",
  "compiler": {
    "name": "solc",
    "version": "0.8.0+commit.c7dfd78e.Emscripten.clang"
  },
  "schemaVersion": "3.4.1",
  "updatedAt": "2021-09-18T16:12:45.342Z",
  "networkType": "ethereum",
  "devdoc": {
    "kind": "dev",
    "methods": {
      "owner()": {
        "details": "Returns the address of the current owner."
      },
      "renounceOwnership()": {
        "details": "Leaves the contract without owner. It will not be possible to call `onlyOwner` functions anymore. Can only be called by the current owner. NOTE: Renouncing ownership will leave the contract without an owner, thereby removing any functionality that is only available to the owner."
      },
      "transferOwnership(address)": {
        "details": "Transfers ownership of the contract to a new account (`newOwner`). Can only be called by the current owner."
      }
    },
    "version": 1
  },
  "userdoc": {
    "kind": "user",
    "methods": {},
    "version": 1
  }
}