{
  "contractName": "ZombieFactory",
  "abi": [
    {
      "anonymous": false,
      "inputs": [
        {
          "indexed": false,
          "internalType": "uint256",
          "name": "zombieId",
          "type": "uint256"
        },
        {
          "indexed": false,
          "internalType": "string",
          "name": "name",
          "type": "string"
        },
        {
          "indexed": false,
          "internalType": "uint256",
          "name": "dna",
          "type": "uint256"
        }
      ],
      "name": "NewZombie",
      "type": "event"
    },
    {
      "anonymous": false,
      "inputs": [
        {
          "indexed": true,
          "internalType": "address",
          "name": "previousOwner",
          "type": "address"
        },
        {
          "indexed": true,
          "internalType": "address",
          "name": "newOwner",
          "type": "address"
        }
      ],
      "name": "OwnershipTransferred",
      "type": "event"
    },
    {
      "inputs": [],
      "name": "owner",
      "outputs": [
        {
          "internalType": "address",
          "name": "",
          "type": "address"
        }
      ],
      "stateMutability": "view",
      "type": "function",
      "constant": true
    },
    {
      "inputs": [],
      "name": "renounceOwnership",
      "outputs": [],
      "stateMutability": "nonpayable",
      "type": "function"
    },
    {
      "inputs": [
        {
          "internalType": "address",
          "name": "newOwner",
          "type": "address"
        }
      ],
      "name": "transferOwnership",
      "outputs": [],
      "stateMutability": "nonpayable",
      "type": "function"
    },
    {
      "inputs": [
        {
          "internalType": "uint256",
          "name": "",
          "type": "uint256"
        }
      ],
      "name": "zombieToOwner",
      "outputs": [
        {
          "internalType": "address",
          "name": "",
          "type": "address"
        }
      ],
      "stateMutability": "view",
      "type": "function",
      "constant": true
    },
    {
      "inputs": [
        {
          "internalType": "uint256",
          "name": "",
          "type": "uint256"
        }
      ],
      "name": "zombies",
      "outputs": [
        {
          "internalType": "string",
          "name": "name",
          "type": "string"
        },
        {
          "internalType": "uint256",
          "name": "dna",
          "type": "uint256"
        },
        {
          "internalType": "uint32",
          "name": "level",
          "type": "uint32"
        },
        {
          "internalType": "uint32",
          "name": "readyTime",
          "type": "uint32"
        },
        {
          "internalType": "uint16",
          "name": "winCount",
          "type": "uint16"
        },
        {
          "internalType": "uint16",
          "name": "lossCount",
          "type": "uint16"
        }
      ],
      "stateMutability": "view",
      "type": "function",
      "constant": true
    },
    {
      "inputs": [
        {
          "internalType": "string",
          "name": "_name",
          "type": "string"
        }
      ],
      "name": "createRandomZombie",
      "outputs": [],
      "stateMutability": "nonpayable",
      "type": "function"
    }
  ],
  "bytecode": "0x60806040526010600155600154600a6200001a919062000150565b6002556201518060035560006004553480156200003657600080fd5b50600062000049620000ed60201b60201c565b9050806000806101000a81548173ffffffffffffffffffffffffffffffffffffffff021916908373ffffffffffffffffffffffffffffffffffffffff1602179055508073ffffffffffffffffffffffffffffffffffffffff16600073ffffffffffffffffffffffffffffffffffffffff167f8be0079c531659141344cd1fd0a4f28419497f9722a3daafe3b4186f6b6457e060405160405180910390a350620002d3565b600033905090565b6000808291508390505b600185111562000147578086048111156200011f576200011e62000297565b5b60018516156200012f5780820291505b80810290506200013f85620002c6565b9450620000ff565b94509492505050565b60006200015d826200028d565b91506200016a836200028d565b9250620001997fffffffffffffffffffffffffffffffffffffffffffffffffffffffffffffffff8484620001a1565b905092915050565b600082620001b3576001905062000286565b81620001c3576000905062000286565b8160018114620001dc5760028114620001e7576200021d565b600191505062000286565b60ff841115620001fc57620001fb62000297565b5b8360020a91508482111562000216576200021562000297565b5b5062000286565b5060208310610133831016604e8410600b8410161715620002575782820a90508381111562000251576200025062000297565b5b62000286565b620002668484846001620000f5565b9250905081840481111562000280576200027f62000297565b5b81810290505b9392505050565b6000819050919050565b7f4e487b7100000000000000000000000000000000000000000000000000000000600052601160045260246000fd5b60008160011c9050919050565b61110080620002e36000396000f3fe608060405234801561001057600080fd5b50600436106100625760003560e01c80632052465e14610067578063528b7b8f1461009c578063715018a6146100cc5780637bff0a01146100d65780638da5cb5b146100f2578063f2fde38b14610110575b600080fd5b610081600480360381019061007c9190610ae8565b61012c565b60405161009396959493929190610c8f565b60405180910390f35b6100b660048036038101906100b19190610ae8565b61023c565b6040516100c39190610c74565b60405180910390f35b6100d461026f565b005b6100f060048036038101906100eb9190610aa7565b6103c2565b005b6100fa610443565b6040516101079190610c74565b60405180910390f35b61012a60048036038101906101259190610a7e565b61046c565b005b6005818154811061013c57600080fd5b906000526020600020906003020160009150905080600001805461015f90610f23565b80601f016020809104026020016040519081016040528092919081815260200182805461018b90610f23565b80156101d85780601f106101ad576101008083540402835291602001916101d8565b820191906000526020600020905b8154815290600101906020018083116101bb57829003601f168201915b5050505050908060010154908060020160009054906101000a900463ffffffff16908060020160049054906101000a900463ffffffff16908060020160089054906101000a900461ffff169080600201600a9054906101000a900461ffff16905086565b60066020528060005260406000206000915054906101000a900473ffffffffffffffffffffffffffffffffffffffff1681565b61027761062e565b73ffffffffffffffffffffffffffffffffffffffff1660008054906101000a900473ffffffffffffffffffffffffffffffffffffffff1673ffffffffffffffffffffffffffffffffffffffff1614610304576040517f08c379a00000000000000000000000000000000000000000000000000000000081526004016102fb90610d17565b60405180910390fd5b600073ffffffffffffffffffffffffffffffffffffffff1660008054906101000a900473ffffffffffffffffffffffffffffffffffffffff1673ffffffffffffffffffffffffffffffffffffffff167f8be0079c531659141344cd1fd0a4f28419497f9722a3daafe3b4186f6b6457e060405160405180910390a360008060006101000a81548173ffffffffffffffffffffffffffffffffffffffff021916908373ffffffffffffffffffffffffffffffffffffffff160217905550565b6000600760003373ffffffffffffffffffffffffffffffffffffffff1673ffffffffffffffffffffffffffffffffffffffff168152602001908152602001600020541461040e57600080fd5b600061041982610636565b90506064816104289190610f9e565b816104339190610e53565b905061043f828261067b565b5050565b60008060009054906101000a900473ffffffffffffffffffffffffffffffffffffffff16905090565b61047461062e565b73ffffffffffffffffffffffffffffffffffffffff1660008054906101000a900473ffffffffffffffffffffffffffffffffffffffff1673ffffffffffffffffffffffffffffffffffffffff1614610501576040517f08c379a00000000000000000000000000000000000000000000000000000000081526004016104f890610d17565b60405180910390fd5b600073ffffffffffffffffffffffffffffffffffffffff168173ffffffffffffffffffffffffffffffffffffffff161415610571576040517f08c379a000000000000000000000000000000000000000000000000000000000815260040161056890610cf7565b60405180910390fd5b8073ffffffffffffffffffffffffffffffffffffffff1660008054906101000a900473ffffffffffffffffffffffffffffffffffffffff1673ffffffffffffffffffffffffffffffffffffffff167f8be0079c531659141344cd1fd0a4f28419497f9722a3daafe3b4186f6b6457e060405160405180910390a3806000806101000a81548173ffffffffffffffffffffffffffffffffffffffff021916908373ffffffffffffffffffffffffffffffffffffffff16021790555050565b600033905090565b6000808260405160200161064a9190610c5d565b6040516020818303038152906040528051906020012060001c9050600254816106739190610f9e565b915050919050565b60056040518060c00160405280848152602001838152602001600163ffffffff168152602001600354426106af9190610dfd565b63ffffffff168152602001600061ffff168152602001600061ffff1681525090806001815401808255809150506001900390600052602060002090600302016000909190919091506000820151816000019080519060200190610713929190610949565b506020820151816001015560408201518160020160006101000a81548163ffffffff021916908363ffffffff16021790555060608201518160020160046101000a81548163ffffffff021916908363ffffffff16021790555060808201518160020160086101000a81548161ffff021916908361ffff16021790555060a082015181600201600a6101000a81548161ffff021916908361ffff16021790555050503360066000600454815260200190815260200160002060006101000a81548173ffffffffffffffffffffffffffffffffffffffff021916908373ffffffffffffffffffffffffffffffffffffffff16021790555061085b6001600760003373ffffffffffffffffffffffffffffffffffffffff1673ffffffffffffffffffffffffffffffffffffffff168152602001908152602001600020546108f790919063ffffffff16565b600760003373ffffffffffffffffffffffffffffffffffffffff1673ffffffffffffffffffffffffffffffffffffffff168152602001908152602001600020819055507f88f026aacbbecc90c18411df4b1185fd8d9be2470f1962f192bf84a27d0704b760045483836040516108d393929190610d37565b60405180910390a1600460008154809291906108ee90610f55565b91905055505050565b60008082846109069190610dfd565b90508381101561093f577f4e487b7100000000000000000000000000000000000000000000000000000000600052600160045260246000fd5b8091505092915050565b82805461095590610f23565b90600052602060002090601f01602090048101928261097757600085556109be565b82601f1061099057805160ff19168380011785556109be565b828001600101855582156109be579182015b828111156109bd5782518255916020019190600101906109a2565b5b5090506109cb91906109cf565b5090565b5b808211156109e85760008160009055506001016109d0565b5090565b60006109ff6109fa84610da6565b610d75565b905082815260208101848484011115610a1757600080fd5b610a22848285610ee1565b509392505050565b600081359050610a398161109c565b92915050565b600082601f830112610a5057600080fd5b8135610a608482602086016109ec565b91505092915050565b600081359050610a78816110b3565b92915050565b600060208284031215610a9057600080fd5b6000610a9e84828501610a2a565b91505092915050565b600060208284031215610ab957600080fd5b600082013567ffffffffffffffff811115610ad357600080fd5b610adf84828501610a3f565b91505092915050565b600060208284031215610afa57600080fd5b6000610b0884828501610a69565b91505092915050565b610b1a81610e87565b82525050565b6000610b2b82610dd6565b610b358185610de1565b9350610b45818560208601610ef0565b610b4e8161108b565b840191505092915050565b6000610b6482610dd6565b610b6e8185610df2565b9350610b7e818560208601610ef0565b80840191505092915050565b6000610b97602683610de1565b91507f4f776e61626c653a206e6577206f776e657220697320746865207a65726f206160008301527f64647265737300000000000000000000000000000000000000000000000000006020830152604082019050919050565b6000610bfd602083610de1565b91507f4f776e61626c653a2063616c6c6572206973206e6f7420746865206f776e65726000830152602082019050919050565b610c3981610e99565b82525050565b610c4881610ec7565b82525050565b610c5781610ed1565b82525050565b6000610c698284610b59565b915081905092915050565b6000602082019050610c896000830184610b11565b92915050565b600060c0820190508181036000830152610ca98189610b20565b9050610cb86020830188610c3f565b610cc56040830187610c4e565b610cd26060830186610c4e565b610cdf6080830185610c30565b610cec60a0830184610c30565b979650505050505050565b60006020820190508181036000830152610d1081610b8a565b9050919050565b60006020820190508181036000830152610d3081610bf0565b9050919050565b6000606082019050610d4c6000830186610c3f565b8181036020830152610d5e8185610b20565b9050610d6d6040830184610c3f565b949350505050565b6000604051905081810181811067ffffffffffffffff82111715610d9c57610d9b61105c565b5b8060405250919050565b600067ffffffffffffffff821115610dc157610dc061105c565b5b601f19601f8301169050602081019050919050565b600081519050919050565b600082825260208201905092915050565b600081905092915050565b6000610e0882610ec7565b9150610e1383610ec7565b9250827fffffffffffffffffffffffffffffffffffffffffffffffffffffffffffffffff03821115610e4857610e47610fcf565b5b828201905092915050565b6000610e5e82610ec7565b9150610e6983610ec7565b925082821015610e7c57610e7b610fcf565b5b828203905092915050565b6000610e9282610ea7565b9050919050565b600061ffff82169050919050565b600073ffffffffffffffffffffffffffffffffffffffff82169050919050565b6000819050919050565b600063ffffffff82169050919050565b82818337600083830152505050565b60005b83811015610f0e578082015181840152602081019050610ef3565b83811115610f1d576000848401525b50505050565b60006002820490506001821680610f3b57607f821691505b60208210811415610f4f57610f4e61102d565b5b50919050565b6000610f6082610ec7565b91507fffffffffffffffffffffffffffffffffffffffffffffffffffffffffffffffff821415610f9357610f92610fcf565b5b600182019050919050565b6000610fa982610ec7565b9150610fb483610ec7565b925082610fc457610fc3610ffe565b5b828206905092915050565b7f4e487b7100000000000000000000000000000000000000000000000000000000600052601160045260246000fd5b7f4e487b7100000000000000000000000000000000000000000000000000000000600052601260045260246000fd5b7f4e487b7100000000000000000000000000000000000000000000000000000000600052602260045260246000fd5b7f4e487b7100000000000000000000000000000000000000000000000000000000600052604160045260246000fd5b6000601f19601f8301169050919050565b6110a581610e87565b81146110b057600080fd5b50565b6110bc81610ec7565b81146110c757600080fd5b5056fea2646970667358221220d818098f94006de4f77cd3295c5b059e032ccdf2b169e913958358b58fa8467f64736f6c63430008000033",
  "immutableReferences": {},
  "source": "// SPDX-License-Identifier: WaqasWahid\npragma solidity ^0.8.0;\n\nimport \"../node_modules/openzeppelin-contracts/access/Ownable.sol\";\nimport \"./SafeMath.sol\";\n\ncontract ZombieFactory is Ownable {\n\n  using SafeMath for uint256;\n  // 1. Declare using SafeMath32 for uint32\n  using SafeMath32 for uint32;\n  // 2. Declare using SafeMath16 for uint16\n  using SafeMath16 for uint16;\n\n  event NewZombie(uint zombieId, string name, uint dna);\n\n  uint dnaDigits = 16;\n  uint dnaModulus = 10 ** dnaDigits;\n  uint cooldownTime = 1 days;\n  uint id = 0;\n\n  struct Zombie {\n    string name;\n    uint dna;\n    uint32 level;\n    uint32 readyTime;\n    uint16 winCount;\n    uint16 lossCount;\n  }\n\n  Zombie[] public zombies;\n\n  mapping (uint => address) public zombieToOwner;\n  mapping (address => uint) ownerZombieCount;\n\n  function _createZombie(string memory _name, uint _dna) internal {\n    // Note: We chose not to prevent the year 2038 problem... So don't need\n    // worry about overflows on readyTime. Our app is screwed in 2038 anyway ;)    \n    zombies.push(Zombie(_name, _dna, 1, uint32(block.timestamp + cooldownTime), 0, 0));\n    zombieToOwner[id] = msg.sender;\n\n    ownerZombieCount[msg.sender] = ownerZombieCount[msg.sender].add(1);\n    NewZombie(id, _name, _dna);\n    id++;\n  }\n\n  function _generateRandomDna(string  memory _str) private view returns (uint) {\n    uint rand = uint(keccak256(abi.encodePacked(_str)));\n    return rand % dnaModulus;\n  }\n\n  function createRandomZombie(string memory _name) public {\n    require(ownerZombieCount[msg.sender] == 0);\n    uint randDna = _generateRandomDna(_name);\n    randDna = randDna - randDna % 100;\n    _createZombie(_name, randDna);\n  }\n\n}",
  "sourcePath": "/home/waqas/Desktop/cryptozombies/contracts/ZombieFactory.sol",
  "compiler": {
    "name": "solc",
    "version": "0.8.0+commit.c7dfd78e.Emscripten.clang"
  },
  "schemaVersion": "3.4.1",
  "updatedAt": "2021-09-18T15:59:07.275Z",
  "networkType": "ethereum",
  "devdoc": {
    "kind": "dev",
    "methods": {
      "owner()": {
        "details": "Returns the address of the current owner."
      },
      "renounceOwnership()": {
        "details": "Leaves the contract without owner. It will not be possible to call `onlyOwner` functions anymore. Can only be called by the current owner. NOTE: Renouncing ownership will leave the contract without an owner, thereby removing any functionality that is only available to the owner."
      },
      "transferOwnership(address)": {
        "details": "Transfers ownership of the contract to a new account (`newOwner`). Can only be called by the current owner."
      }
    },
    "version": 1
  },
  "userdoc": {
    "kind": "user",
    "methods": {},
    "version": 1
  }
}